:020000040800F2
:1000000098070020A90100081B2900080F270008F5
:1000100019290008AB140008012D00080000000099
:100020000000000000000000000000001F29000880
:10003000F1150008000000001D2900082129000812
:10004000C3010008C3010008C3010008C301000880
:10005000C3010008C3010008C3010008C301000870
:10006000C3010008C3010008C3010008C301000860
:10007000C3010008C3010008C3010008C301000850
:10008000C3010008C3010008C3010008C301000840
:10009000C3010008C3010008C3010008C301000830
:1000A000C3010008C3010008C3010008C301000820
:1000B000C3010008C301000885290008C301000826
:1000C000C3010008C3010008C3010008C301000800
:1000D000C3010008F52C0008C3010008C301000893
:1000E000C3010008C3010008C301000800F002F8C2
:1000F00000F04AF80AA090E8000C82448344AAF178
:100100000107DA4501D100F03FF8AFF2090EBAE875
:100110000F0013F0010F18BFFB1A43F0010318473B
:10012000303A0000503A0000103A24BF78C878C135
:10013000FAD8520724BF30C830C144BF04680C60ED
:10014000704700000023002400250026103A28BF35
:1001500078C1FBD8520728BF30C148BF0B60704739
:10016000662903F08484642900F0528000207047DF
:100170001FB500F09DFC04000020002103F078F979
:10018000E0601FBD10B510BD00F092FD1146FFF7F5
:10019000EFFF02F0F7FE00F0B0FD03B4FFF7F2FF4F
:1001A00003BC00F0B3FD0000094880470948004740
:1001B000FEE7FEE7FEE7FEE7FEE7FEE7FEE7FEE717
:1001C000FEE7FEE704480549054A064B7047000074
:1001D00083290008ED0000089801002098070020FE
:1001E00098030020980300200FB41CB5074B06AA03
:1001F0007B4469460090059800F041FC0020694668
:1002000000F050FC1CBC5DF814FB0000B1080000BD
:100210002DE9F0410646002410687529314616A5DF
:1002200010D0AFF30080002802DA404213A507E0A7
:1002300031688A0701D512A502E0490704D511A546
:10024000012401E0AFF3008000210A2206F1240717
:1002500009E0B0FBF2FCB0FBF2F302FB1C00303013
:1002600078541846491C0028F3D123462A463046C4
:10027000BDE8F04100F095B9000000002D0000003D
:100280002B000000200000002DE9F0474FF0000A8D
:1002900089460446C0F820A02046E1688847002827
:1002A00076D0252806D0D4E901219047206A401C49
:1002B0002062F1E7E168204600258847C4F81CA0C9
:1002C00006460027C4F818A02A2E09D0304602F0AE
:1002D0003CFD38B304EB8708303EC8F8186019E0DD
:1002E00059F8041B204604EB87029161E1688847B6
:1002F000012F064618D1E069002820DA25F02005F4
:100300001DE0D8F8180000EB800006EB4000303804
:10031000C8F818002046E1688847064602F015FD37
:100320000028EED1012F0AD02E2E08D12046E168F8
:1003300088477F1C0646022F45F02005C4DBA069D4
:10034000002803DA404245F00105A061E80701D02A
:1003500025F01005B6B1A6F14100192802D82036C3
:1003600045F400654A463146204625604D46FFF774
:10037000F7FE58B1012806D0ED1D25F0070000F169
:10038000080989E704E005F1040985E730468AE7B2
:10039000206ABDE8F08710B5431C02E010F8011B8D
:1003A00071B18107FAD14FF0013202C88C1A8C4327
:1003B00014EAC211F9D0C01A0A0603D0C01E10BD3B
:1003C000C01A10BD0A0401D0801E10BD0902FCD065
:1003D000401E10BD40EA010370B59B072ED14FF0BF
:1003E0000136042A2AD308C810C99D1B9D43121F39
:1003F00015EAC61517D0D8B2E1B2401A50EA056125
:1004000010D198B2A1B2401A50EA05410AD123F0A6
:100410007F4024F07F41401A50EA052102D1180E96
:10042000A0EB146070BDA342DBD018BA21BA884299
:1004300001D9012070BD4FF0FF3070BD0AB9002016
:1004400070BD10F8013B11F8014B63B1A3420AD112
:10045000521E08D010F8013B11F8014B1BB1A3420A
:1004600001D1521EEDD1181B70BD10B5203AC0F05D
:100470000B80B1E81850203AA0E81850B1E81850A5
:10048000A0E81850BFF4F5AF5FEA027C24BFB1E8E2
:100490001850A0E8185044BF18C918C0BDE8104053
:1004A0005FEA827C24BF51F8043B40F8043B08BF5C
:1004B0007047D20728BF31F8023B48BF11F8012B23
:1004C00028BF20F8023B48BF00F8012B70474FF0CF
:1004D000000200B5134694469646203922BFA0E894
:1004E0000C50A0E80C50B1F12001BFF4F7AF0907A0
:1004F00028BFA0E80C5048BF0CC05DF804EB890091
:1005000028BF40F8042B08BF704748BF20F8022BD3
:1005100011F0804F18BF00F8012B70474FF0013CDD
:1005200050F8042B51F8043B9A4221D1A2EB0C0362
:10053000934313EACC1317D150F8042B51F8043B22
:100540009A4215D1A2EB0C03934313EACC130BD1BF
:1005500050F8042B51F8043B9A4209D1A2EB0C034A
:10056000934313EACC13DBD04FF00000704700BF79
:10057000D01A01BAB1FA81F101F0180122FA01F0A2
:10058000CB40C1F12001DBB2C0B2C01A2CFA01F39A
:10059000D11A914311EAC311E6D1704770477047F1
:1005A00070472DE9F0470D4699469246044600F102
:1005B00024080168880604D5E06921F01001216053
:1005C00000E00120A84201DD471B00E00027A169EF
:1005D0007A1902EB0900081AA0612078C00602D43B
:1005E0002046AFF30080002608E0D4E901211AF884
:1005F00006009047206A401C761C20624E45F4DBC2
:100600002078C0060AD52046AFF3008006E0D4E982
:10061000012130209047206A401C2062381EA7F13B
:100620000107F4DC07E0D4E9012118F80500904740
:10063000206A401C2062281EA5F10105F3DC20463B
:10064000AFF300802078000602D50220BDE8F087D5
:100650000120FBE770472DE9FF4F0C461E464FF087
:10066000FF378BB0D2E90001DDF860800A908A463E
:10067000C1F30A5505B93D46002108464FF0000078
:10068000BAF1000F00F4400005DA00EB80004FF4EF
:10069000400101EA50004FEA9059B9F1010F00DD25
:1006A000B9460A9850EA4A000ED044F61050A5F216
:1006B000FF3545432F14B8F1000F1ED07542291E97
:1006C0001EDDC9F100021CE0B8F1010F4FF000007F
:1006D00001D0302103E0F24305E02154401CB04238
:1006E000FBDB30460022002121540B99C1F8088021
:1006F000C1E900200FB0BDE8F08FBD1B6D1CDEE727
:100700004A4600DA694206A800F05CFA06AB93E8B4
:10071000070003AB83E8070050460A9900F0FDFA92
:100720008DE80700A0F500501F3800900398002DB9
:100730000ADD42F21F014A460844002303A9039040
:10074000684600F066FD09E0A0F500504A461F38F3
:10075000002303A90390684600F070FD8DE80700B0
:100760000004000C03D04FF0FF30410800E01046B9
:10077000B8F1000F03D00022009215461EE0751E4E
:1007800005D400F099F9303262556D1EF9D5B346A3
:100790000122084302D000227F1C04E02078302888
:1007A00001D100227F1E002A099784D01DE0112D5F
:1007B00007DA00F081F9303262556D1C50EA01020F
:1007C000F5D1084302D00098C8B10EE00021681EA0
:1007D00005E0235C625C63542254401E491C814244
:1007E000F7DBAB46A81B401E0990002004F80B0065
:1007F0000B98099AC0F80880C0E9002B7AE7112607
:100800004FF0000857E72DE9F04F88460446D21D07
:1008100022F0070191B0D1E90001CDE90A0102F00F
:1008200070FA02460B98C00F01D02D2007E0206817
:10083000810701D52B2002E0202101EAC000032A14
:10084000099001D0072A05DB03464146204600F007
:1008500079F90BE12078800601D5E06900E00620F7
:10086000B8F1650F814606D0B8F1660F18D0B8F11F
:10087000670F70D131E00020B9F1110F009001DB5A
:10088000112301E009F101030AAA01A90CA8FFF74D
:10089000E2FEDDE90C70002609F10105834647E020
:1008A00001204B4600904FF000470AAA01A90CA86E
:1008B000FFF7D1FEDDE90DB00C995D46002610B9B9
:1008C00009F101000D18B9EB050003D4C0F1FF36A2
:1008D00009F10105A5EB09002BE0B9F1010F01DADF
:1008E0004FF001090020B9F1110F0090484601DDD9
:1008F000112300E003460AAA01A90CA8FFF7ABFEEA
:10090000DDE90C704D4600268346207800070AD4A6
:10091000AB4500DA5D4601A8012D04DD411911F84F
:10092000011C302907D04F4502DA17F1040F04DA11
:10093000012082460FE06D1EEEE7002F02DCED1B6A
:100940003E4403E0781CA84200DD7D1CB81B00F18A
:10095000010A4FF000472078000703D4AA4501DBC5
:100960004FF0FF3A0021B7F1004F0DF143088DF829
:10097000431024D002202B23002F01DA7F422D23A5
:100980000A21021EA0F1010000DC5FB197FBF1FC1F
:1009900097FBF1F201FB1C7C17460CF1300C08F8B8
:1009A00001CDEEE7A8F1010003702188090501D50A
:1009B000452100E06521A0F1010800F8011C09981B
:1009C0000FA9A1EB0807FF1D00B10120411901EBA0
:1009D000EA70A1693844081A401EA0612078C00658
:1009E00002D42046AFF30080099828B1D4E9012150
:1009F0009047206A401C20622078C00622D52046FD
:100A0000AFF300801EE0002E04DBB34502DD01A839
:100A1000805D00E03020D4E901219047206A401C2D
:100A20002062761CAAF101005FEA000A0AD100F0F8
:100A30003FF8C0680168405CD4E901219047206A12
:100A4000401C2062281EA5F10105DCDC07E0D4E98A
:100A5000012118F8010B9047206A401C2062381EC3
:100A6000A7F10107F3DC2046AFF30080032011B0AB
:100A700041E6000001694A1C02610878704700B530
:100A80008FB0CDE901310021059105497944CDE9C7
:100A9000031011466846FFF7F7FB0FB000BD0000DA
:100AA000E5FFFFFF0A6802F8010B0A6070470000CB
:100AB000004870475801002030B5B0F10A024FEAF3
:100AC000900E71F100034EEA817EB0EB0E0061EBF7
:100AD00091014FEA101E4EEA017E10EB0E0041EB31
:100AE00011114FEA102E4EEA016E10EB0E0041EB91
:100AF00011214FEA104E4EEA014E10EB0E0041EB71
:100B00001141401841F100014FEAD00040EA417024
:100B10004FEAD10110EB80054FEA810444EA90745A
:100B200044EB01046D1944EB0404521BA3414FF044
:100B3000000348BF0A3200D530BD401C41F100011E
:100B400030BD00002DE9F0411F4604460326016830
:100B5000072A01F4006004DB08B116A505E016A51C
:100B600003E008B115A500E015A521F010002060F4
:100B7000A069C01EA0610FB1401EA0612046AFF366
:100B800000804FB1D4E9012138469047206A401CCB
:100B90002062C01C206206E0206AFAE7D4E9012145
:100BA00015F8010B9047761EF8D22046AFF300806F
:100BB000BDE8F0814E414E006E616E00494E460028
:100BC000696E66002DE9F047814616468AB03548C1
:100BD00078440DC88DE80D0032487844801C03AC81
:100BE0000DC884E80D0041F69B300844372190FB86
:100BF000F1F290FBF1F5A5F1800501FB12041B3C1D
:100C000002D56442012000E00020DFF898A0804671
:100C10000027FA44AAF1BE0A0EE0E0070AD03246E5
:100C2000684607EB470101230AEB810100F006FB50
:100C30008DE8070064107F1C002CEED1194F7F4413
:100C4000AE3F19E0E80715D007EB04100DF1180AC4
:100C500090E80E008AE80E00C068F04201D19819B1
:100C600008903246012306A903A800F0E7FA03AB77
:100C700083E807006D10641C002DE3D14FF00103E1
:100C800032466946B8F1000F03A802D000F0C1FA5D
:100C900001E000F0D3FAC9E90001C9F808200AB060
:100CA000BDE8F087642F000000487047380100203D
:100CB0007546FFF7F9FFAE4605006946534620F03A
:100CC0000700854618B020B5FFF77CFABDE8204044
:100CD0004FF000064FF000074FF000084FF0000BF8
:100CE00021F00701AC46ACE8C009ACE8C009ACE8AB
:100CF000C009ACE8C0098D46704710B50446AFF393
:100D000000802046BDE81040FFF747BA014918208F
:100D1000ABBEFEE72600020070475FEA400C08BF4A
:100D200091F0000F4FEA8C234FEAC12243EA515160
:100D30004FEA1C5018BF00F5F0404FEA300018BFD2
:100D400041F000415FEA6C5C00F02980BCF1FF3F9C
:100D500008BF40F080407047130C06BF12044FF0EC
:100D6000100C4FF0000C130E04BF12020CF1080C13
:100D7000130F04BF12010CF1040C930F04BF920077
:100D80000CF1020CD30F04BF52000CF1010C114600
:100D90004FF00002A0F11F00A0EB0C00704711F013
:100DA000004F08BF704731F000413FF4D5AF0B0C46
:100DB00006BF09044FF0100C4FF0000C0B0E04BFDF
:100DC00009020CF1080C0B0F04BF09010CF1040C13
:100DD0008B0F04BF89000CF1020CCB0F04BF49003C
:100DE0000CF1010CCCF12003A0EB0C0022FA03F370
:100DF00002FA0CF241EA030100F10100704720F011
:100E00007F4C80EA030023F07F47ACEB070303F538
:100E10007C5300F0004003F1FF032DE980494FEAC5
:100E2000154B09B44FEA144325EA0B4E24EA034854
:100E30000FF2042606EB132749083E785FEA3202D8
:100E400003FB0667C7F5000707FB06F64FEA5437B2
:100E50004FEAD64606F1020607FB066CCCF1005CB1
:100E60004FEA1C472CEA074C07FB06F40CFB06F57F
:100E700004EB15464FEA961634BF00204FF00040B1
:100E80004FEAD13706FB07FC4FEA1C4C0CFB0BF773
:100E9000D21B03FB0CF761EB07010CFB0EF7B0EB69
:100EA000074072EB17420CFB08F734BFA2EB074276
:100EB000B2EB074261EB17414FEA0C444FEA91074E
:100EC00006FB07FC4FEA1C4C0CFB0BF7B0EBC740D2
:100ED00072EB573203FB0CF734BFA2EBC742B2EB05
:100EE000C74261EB57310CFB0EF7B0EBC70072EB5A
:100EF00057720CFB08F734BFA2EBC702B2EBC70274
:100F000061EB5771039F4FEA816141EA921104EB53
:100F1000CC044FEAD1374FEA826206FB07FC42EA73
:100F200090124FEA80604FEA1C4C0CFB0BF7D21B6F
:100F300003FB0CF761EB07010CFB0EF7B0EB07406E
:100F400072EB17420CFB08F734BFA2EB0742B2EB7F
:100F5000074261EB17414FEA8C554FEA910704EBCA
:100F60009C2406FB07FC4FEA1C4C0CFB0BF7B0EB78
:100F7000C74072EB573203FB0CF734BFA2EBC742FA
:100F8000B2EBC74261EB57310CFB0EF7B0EBC70079
:100F900072EB57720CFB08F734BFA2EBC702B2EB3F
:100FA000C70261EB577115EB4C254FEA816141EAAD
:100FB00092114FEA82624FEAD13742EA901206FB61
:100FC00007FC44F100044FEA80604FEA1C4C0CFB24
:100FD0000BF7D21B03FB0CF761EB07010CFB0EF7C1
:100FE000B0EB074072EB17420CFB08F734BFA2EBE3
:100FF0000742B2EB074261EB174115EB1C154FEAB4
:10100000813141EA92414FEA823242EA90424FEA0C
:1010100080304FEA0C7644F1000448EA03434EEA7C
:101020000B484FF0000EB2EB080C71EB030724BF26
:10103000624639464EEB0E0E4FF0000B001852413F
:1010400049414BEB0B0BB2EB080C71EB03077BF147
:10105000000B24BF624639464EEB0E0E4FF0000BDC
:101060000018524149414BEB0B0BB2EB080C71EBF2
:1010700003077BF1000B24BF624639464EEB0E0E90
:1010800051EA020718BF46F0010616EB0E7655F13D
:10109000000254F1000103D5BDE88901BDE80088D4
:1010A000BDE88901BDE80048B619524141EB010194
:1010B000A3F10103704780807F7E7D7C7B7A797805
:1010C000777676757473727171706F6E6E6D6C6C0D
:1010D0006B6A6A69686867666665646463636261AF
:1010E0006160605F5F5E5E5D5D5C5C5B5B5A5A5930
:1010F000595858575756565555555454535352529C
:101100005251515050504F4F4F4E4E4D4D4D4C4CF3
:101110004C4B4B4B4A4A4A4949494848484747473C
:101120004746464645454544444444434343434279
:10113000424242414141002B9C4630D477002BD0A3
:101140001CB54FEA370703B44FF010004FF0100101
:10115000BAF1000F06D0BCF1000FDCBF40F0080070
:1011600040F008014FF000000FBCBDE810400BF14B
:10117000010BBBF1010F08BF5FEA170722BF12F195
:10118000010211F101014FF0004143F1000300F0B1
:10119000004043EA00007047F9D35708D0E746EA19
:1011A000064613F1400F4FEA16461FDD13F1200FDC
:1011B000DFBF16430A46002120335B42BED0C3F195
:1011C000200746EA064602FA07F74FEA164646EABD
:1011D0000706C3F1200722FA03F201FA07F721FA02
:1011E00003F14FF0000342EA0702A7E746EA0206CE
:1011F00046EA06464FEA164646EA0106BCBF46EAFC
:101200000646360C4FF000034FF000024FF000018D
:1012100094E72DE9804C9A46934670B491E83800E3
:1012200007C831EA400C48BF34EA430C03D5FFF746
:10123000E6FDFFF780FFF0BCBDE8008C2DE9804C97
:101240009A46934670B491E8380007C810F0804F72
:1012500008BF13F0804F03D100F005F8FFF76BFFD4
:10126000F0BCBDE8008C20F07F4780EA030023F04B
:101270007F4C07EB0C03A3F57C5300F00040A3F177
:10128000FE0392F0000F00F0B38095F0000F00F025
:1012900077802DE901494FEA11404FEA144621EACF
:1012A000004800FB06FC24EA064708FB06F607FB9D
:1012B00008F800FB07F718EB06484CEB164C4FEA12
:1012C000124B18EB07484FEA15464CEB174022EA41
:1012D0000B4E0BFB06FC25EA06470EFB06F607FB4A
:1012E0000EFE0BFB07F71EEB064E4CEB164C4FF0B9
:1012F00000061EEB074E4CEB174B18EB0B0840F1AA
:10130000000018EB0E0B58EB000840F100008F1A9C
:101310004FF000013CBFC943661B14BFB5EB040C82
:1013200000213CBFC943F61B4FEA17444EEA8E0E1C
:1013300027EA04454FEA1C4704FB07622CEA074CE6
:1013400005FB07F70CFB05F604FB0CFC16EB074648
:1013500042EB174216EB0C4642EB1C421BEB060617
:1013600058EB0202414146EA9E0601D5BDE80189DB
:10137000B619524141EB0101A3F10103BDE8018916
:101380004FEA14454FEA114724EA054621EA074C83
:1013900005FB07F406FB07F70CFB06F105FB0CFC4D
:1013A00011EB074144EB17444FEA124711EB0C4194
:1013B00044EB1C4422EA074C05FB07F206FB07F747
:1013C0000CFB06F605FB0CFC16EB074642EB17423E
:1013D00016EB0C4642EB1C456A1854F1000148BF5D
:1013E0007047B619524141EB0101A3F10103704767
:1013F00095F0000F37D04FEA11424FEA144721EA27
:10140000024624EA074C02FB07F106FB07F70CFB38
:1014100006F402FB0CFC14EB074441EB17414FEAC6
:10142000154714EB0C4441EB1C4125EA074C02FB29
:1014300007F506FB07F70CFB06F602FB0CFC16EBA8
:10144000074645EB174516EB0C4645EB1C421219B7
:1014500051F1000148BF7047B619524141EB0101FB
:10146000A3F1010370474FEA14454FEA114724EAFC
:10147000054621EA074C05FB07F106FB07F70CFBC5
:1014800006F24FF0000605FB0CFC12EB074241EBA5
:10149000174112EB0C4251EB1C4148BF70479218A8
:1014A00041EB0101A3F101037047FEE72DE9F0478D
:1014B00000254FF0010A4FF40069DFF88480214CC9
:1014C00000F012FA206200F00FFA4F46606202E06C
:1014D00000F00AFA60623946404600F0FBF920B994
:1014E000D4E90801801C8842F2D8282001F03EFE91
:1014F000B94639464746404600F0ECF90028C5F1A8
:1015000007010AFA01F019D03043C6B200F0ECF935
:10151000C4F8200000F0E8F960624946384600F05F
:10152000D9F920B1D4E90801801C8842F2D86D1C99
:10153000EDB2082DC4D33046BDE8F0878643E5E719
:10154000000C0140000000202DE9FF410025022091
:101550004FF400644FF00108CDE90250224ECDE96E
:1015600000482F466946304600F0C4F80022214664
:10157000304600F0B4F944F6206001F0F7FD012296
:101580002146304600F0ABF91E2001F0EFFDCDE919
:1015900001786946304600F0ADF8282001F0E6FDFC
:1015A0002146304600F096F940B9502001F0DEFDAA
:1015B0002146304600F08EF900B1012500F094F983
:1015C0000A4F386200F090F978622146304600F008
:1015D00081F920B1D7E90801801C8842F2D804B013
:1015E0002846BDE8F0810000000C0140000000200A
:1015F000704710B590F821100022022905D004216F
:10160000816380F82020012010BD01680B6823F061
:101610000E030B6001680B6823F001030B6090F868
:101620004030C46B012101FA03F3636080F821109C
:1016300080F82020104610BD10B590F8211000242D
:10164000022903D00421816301243DE001680A6876
:1016500022F00E020A6001680A6822F001020A60A4
:101660001A4A0168914201D1012121E0174A14323E
:10167000914201D110211BE0144A2832914201D13C
:10168000891515E0114A3C32914201D189140FE0CD
:101690000E4A5032914202D14FF4803108E00B4A99
:1016A0006432914202D14FF4801101E04FF0807119
:1016B000064A083A5160012180F82110002180F883
:1016C0002010416B01B18847204610BD0800024040
:1016D00070B5044600F008F90546601C02D00448C5
:1016E0000078044400F000F9401BA042FAD370BD1A
:1016F000340000202DE9F84FDFF8B8910024A9F15B
:10170000040B23460F2709F1040AABF1040EC9E0CC
:101710000125A5402A40AA427DD1674ED1F804C0D8
:10172000ACEB0608B44532D014DCBCF1030F3AD060
:1017300009DCBCF1000F2AD0BCF1010F1CD0BCF1B8
:10174000020F31D11DE0BCF1110F17D0BCF1120F07
:101750002AD119E0B8F5881F19D006DCB8F5803F0A
:1017600015D0B8F5801F1FD111E0B8F5001F0ED0BD
:10177000B8F5041F18D10AE0CB6815E0CB681B1D33
:1017800012E0CB6808330FE0CB680C330CE08B68B9
:101790002BB1012B4FF0080303D0456104E0042373
:1017A00002E0056100E00023FF2A01D8064601E0BF
:1017B00000F104064FEA840501D9A5F12005D6F809
:1017C000008007FA05FC28EA0C0803FA05F548EA48
:1017D0000508C6F800804D68ED0062D5374DAE694A
:1017E00046F00106AE61AD6924F0030605F001057F
:1017F0000095334D06EB050CDCF80850A607360FB4
:1018000007FA06F825EA0805DFF8B880404503D155
:101810004FF0000817E044E0DFF8AC80404502D10B
:101820004FF001080FE0DFF8A480404502D14FF0EF
:10183000020808E0DFF89880404502D14FF0030825
:1018400001E04FF0040808FA06F848EA0508CCF869
:1018500008804D68D9F80060ED024D4601D5164369
:1018600000E096432E604D68DAF80060AD02554600
:1018700001D5164300E096432E604D68DBF800600A
:10188000AD035D4601D5164300E096432E604D68DA
:10189000DEF80060ED03754601D5164300E096437F
:1018A0002E60641C0D682A46E5407FF431AFBDE828
:1018B000F88F0000080401400000111000100240E1
:1018C0000000014000080140000C014000100140F0
:1018D000001401408068084000D0012070470AB120
:1018E000016170470904FBE7014880687047000008
:1018F00034000020024881680278114481607047FA
:1019000034000020074810B5016841F01001016063
:10191000032000F075F80F2000F006F800F024F81E
:10192000002010BD0020024070B50D4D04464FF45C
:101930007A712878B1FBF0F00A490968B1FBF0F040
:1019400000F0DCFA48B9102C07D200222146501EC4
:1019500000F036F800206C6070BD012070BD000002
:1019600034000020400000200C4808B5816941F097
:1019700001018161816901F001010091C16941F0BA
:101980008051C161C06900F08050009004484168F6
:1019900021F0E06141F00071416008BD001002409B
:1019A00000000140002809DB00F01F0201219140E6
:1019B0004009800000F1E020C0F8001170470000ED
:1019C000F0B40E4B1B680C46C3F30223C3F10705AA
:1019D000042D00D90425191D072901D2002300E098
:1019E000DB1E012606FA05F1491E214099409E4062
:1019F000761E16403143F0BC01F097B90CED00E0C3
:101A0000064900F0070208684FF6FF03184040EA55
:101A10000220034A10430860704700000CED00E00C
:101A20000000FA052DE9F0470F46050061D0434E4E
:101A3000306800F00700B84209D2306820F0070093
:101A400038433060306800F00700B84251D1286850
:101A50003B4C810712D5400703D5606840F4E06035
:101A600060602878000703D5606840F460506060CB
:101A70006068A96820F0F000084360602878C0071B
:101A800028D06868012810D02168022810D0890762
:101A900000292EDA616821F0030101436160FFF73C
:101AA00023FF804641F288390DE021688903EFE782
:101AB0008901EDE7FFF718FFA0EB0801494502D9BE
:101AC0000320BDE8F0876068696800F00C00B0EBA7
:101AD000810FEFD1306800F00700B8420BD93068B1
:101AE00020F0070038433060306800F00700B8424B
:101AF00001D00120E5E72878400705D56068E9684E
:101B000020F4E060084360602878000706D560682C
:101B1000296920F4605040EAC100606000F038F8A4
:101B20006168084AC1F30311515CC8400649086066
:101B300006480068FFF7F8FE0020C2E700200240D8
:101B400000100240A23A00084000002038000020A7
:101B50000448054900684968044AC1F30221515C00
:101B6000C84070474000002000100240B23A000810
:101B70000448054900684968044AC1F3C221515C20
:101B8000C84070474000002000100240B23A0008F0
:101B90000E4A51680E4801F00C03042B11D0082B9B
:101BA0000FD10C48C1F38343C903C05C0AD5516807
:101BB000084AC1F34041921E515C054A5043B0FBB4
:101BC000F1F070470449484370470000001002409C
:101BD00000127A00923A000800093D002DE9F84F02
:101BE000040070D02078C04DC00749D06868C0F3A9
:101BF0008100012807D06868C0F38100022809D15C
:101C00006868C00306D52868800339D56068002855
:101C1000E7D035E06068B0F5803F0BD010B1B0F58B
:101C2000A02F11D0286820F480302860286820F484
:101C3000802002E0286840F480302860606890B11D
:101C4000FFF752FE06460AE0286840F4802028602C
:101C5000F0E700BFFFF748FE801B642873D82868B0
:101C60008003F7D50CE0FFF73FFE064605E000BF16
:101C7000FFF73AFE801B6428F0D828688003F7D469
:101C800020789A4E80074FF001094FF0000839D5AF
:101C9000686810F00C0F07D06868C0F38100022854
:101CA00009D16868C00306D42868800714D5206964
:101CB000012808D110E02069B0B1C6F80090FFF704
:101CC00013FE074605E00AE1FFF70EFEC01B0228DF
:101CD000C4D828688007F7D52868616920F0F80023
:101CE00040EAC10028600DE0C6F80080FFF7FCFD67
:101CF000074604E0FFF7F8FDC01B022823D8286838
:101D00008007F7D4207800072CD57948A169D9B18C
:101D1000C0F80090FFF7E8FD074604E0FFF7E4FD98
:101D2000C01B02280FD8686A8007F7D571484FF4A6
:101D3000FA510068B0FBF1F0009000BF0098411E1E
:101D40000091FAD20EE080E0C0F80080FFF7CCFDF1
:101D5000074604E0FFF7C8FDC01B022875D8686A73
:101D60008007F7D42078400760D5E8690027C000D5
:101D700008D4E86940F08050E861E869012700F084
:101D8000805000905C480168C90513D401688346FF
:101D900041F480710160FFF7A7FD824606E000BFB5
:101DA000FFF7A2FDA0EB0A0064284ED8DBF8000084
:101DB000C005F5D5E06801280AD008B1052813D080
:101DC000286A20F001002862286A20F0040002E05E
:101DD000286A40F001002862E06841F2883B98B12F
:101DE000FFF782FD82460BE0286A40F0040028627B
:101DF000EEE700BFFFF778FDA0EB0A0159455AD87E
:101E0000286A8007F6D50CE0FFF76EFD824605E0F4
:101E1000FFF76AFDA0EB0A0159454CD8286A8007F4
:101E2000F6D41FB1E86920F08050E861E06988B31A
:101E30006968C1F38101022944D00228C6F8608094
:101E400004D0FFF751FD044638E034E0FFF74CFDC5
:101E5000074604E0FFF748FDC01B02282BD828687E
:101E60008001F7D4206AB0F5803F05D16868A16889
:101E700020F4003008436860D4E908010843696829
:101E800021F4741108436860C6F86090FFF72CFDD8
:101E9000044606E025E000BFFFF726FD001B0228F0
:101EA00009D828688001F7D51BE000BFFFF71CFDAB
:101EB000001B022802D90320BDE8F88F28688001A2
:101EC000F4D40EE00128F7D06868226A00F480316B
:101ED000914204D1616A00F47010884201D001205F
:101EE000EAE70020E8E7000000100240000042425C
:101EF00080044242400000200070004010B5401EA7
:101F0000B0F1807F01D3012010BD4FF0E02460616B
:101F10000F21601700F009FF0020A0610720206159
:101F2000002010BD7047704770B590F83C20012A22
:101F300026D0012480F83C40022280F83D2003682E
:101F40005A689D6822F070060A6832435A600D4B49
:101F500002689A4208D0B2F1804F05D00A4B9A42EB
:101F600002D00A4B9A4204D1496825F080031943F4
:101F7000916080F83D40002180F83C10084670BD1B
:101F8000022070BD002C0140000400400008004009
:101F900010B5040003D094F83D0010B107E0012013
:101FA00010BD002084F83C00204600F01FF80220FD
:101FB00084F83D00211D206800F0EAFC012084F82F
:101FC000460084F83E0084F83F0084F8400084F81E
:101FD000410084F8420084F8430084F8440084F807
:101FE000450084F83D00002010BD000008B50068E1
:101FF0000B49884212D10B48C16941F00401C1610B
:10200000C069002200F00400009011461E20FFF776
:10201000D7FCBDE808401E20FFF7C4BC08BD000087
:10202000000800400010024090F83D10012901D046
:1020300001207047022180F83D1000680B4988425A
:1020400008D0B0F1804F05D00949884202D0094933
:10205000884204D1816801F00701062903D0016894
:1020600041F001010160002070470000002C014098
:10207000000400400008004070B5044690F83C00A1
:102080000025012817D0012684F83C60022084F83E
:102090003D002068826822F0770222F47F4282604D
:1020A0000868502838D00DDC20284FD005DC90B3CC
:1020B000102811D14AE0022070BD302846D04028B7
:1020C0000AD13BE060282FD070280DD0B0F5805F9A
:1020D00003D0B0F5005F12D0012584F83D600020E8
:1020E00084F83C00284670BDCB68D1E90121206806
:1020F00000F08AFC2068816841F0770109E0CB6834
:10210000D1E90121206800F07FFC2068816841F45A
:1021100080418160E1E719E0CA684968206800F001
:1021200085FC5021206806E0CA684968206800F0F4
:102130008EFC6021206800F071FCCEE7CA68496817
:10214000206800F073FC40212068F4E72268014613
:102150001046F0E770472DE9F04104460068C66874
:1021600005694FF00007A90713D5B10711D5F91E6E
:10217000016101202077206880698007204602D015
:10218000FFF7E8FF04E000F07EF8204600F07CF85E
:102190002777680716D5700714D521686FF00400FB
:1021A0000861022020772068806910F4407F204673
:1021B00002D0FFF7CFFF04E000F065F8204600F002
:1021C00063F82777280715D5300713D521686FF0F6
:1021D00008000861042020772068C0698007204635
:1021E00002D0FFF7B7FF04E000F04DF8204600F002
:1021F0004BF82777E80616D5F00614D521686FF05E
:1022000010000861082020772068C06910F4407F22
:10221000204602D0FFF79EFF04E000F034F820468D
:1022200000F032F82777E80708D0F00706D02168D9
:102230006FF001000861204600F028F8280608D554
:10224000300606D521686FF0800008612046FFF750
:1022500069FE680608D5700606D521686FF0400053
:102260000861204600F01EF8A8060AD5B00608D579
:1022700021686FF0200008612046BDE8F041FFF7BB
:1022800052BEBDE8F0817047704700000068B0F1B1
:10229000804F03D10248C169491CC16170470000E9
:1022A000000000207047704770470000F8B50168D3
:1022B00004460868CA684B6910F00F0F4FF000051C
:1022C00059D003F0010602F49077374365D0C10777
:1022D00005D0D10503D5616C41F00101616441076E
:1022E00005D5D90703D0616C41F002016164810713
:1022F00005D5D90703D0616C41F004016164010781
:1023000007D502F02001314303D0616C41F0080190
:102310006164616C00293AD0800604D5900602D52C
:10232000204600F0D5FB20684069616CC0F3801046
:10233000090700D460B3204600F0A3FB2068406981
:10234000400621D52068143050E8001F21F04001DC
:1023500040E80012002AF5D1E06BA8B16D49416355
:10236000E06BFFF769F9002811D0E06B416B01B019
:10237000BDE8F040084783060FD593060DD52046EB
:10238000BDE8F84000F0A4BB2046FFF78DFFF8BD84
:102390002046FFF789FF6564F8BD266B2023012ED8
:1023A0007CD1C6067AD5D60678D5086848680090EC
:1023B00048694FF00206400640D5E16B0868406866
:1023C0000004000CE8D0A28D8242E5D9E08588693E
:1023D00020282DD020680C3050E8001F21F4807197
:1023E00040E80012002AF5D12068143050E8001FA0
:1023F00021F0010140E80012002AF5D120681430D4
:1024000050E8001F21F0400140E80012002AF5D1F9
:1024100084F84230256320680C3050E8001F21F01A
:10242000100140E80012002AF5D1E06BFFF7E1F857
:102430006663A08DE18D401A81B22AE0A08DE18D06
:10244000401A81B2E08D0028A6D00029A4D02268CD
:102450000C3252E8000F20F4907042E80007002F81
:10246000F5D12068143050E8002F22F0010240E836
:102470000027002FF5D184F84230256320680C3006
:1024800050E8002F22F0100240E80023002BF5D185
:1024900066632046FFF707FFF8BDFFE705062BD56B
:1024A000150629D594F841002128F5D1A068B0F58A
:1024B000805F01D12069B0B1206A411C216221688E
:1024C00000784860E08C401E0004000CE084E3D1FA
:1024D0002068C16821F08001C1602068C16841F0B6
:1024E0004001C160D8E7206A0088C0F30800486056
:1024F000206A801C2062E5E74006CDD55006CBD58A
:10250000CA68204622F04002CA6084F8413000F0D8
:10251000FDF8C1E7732A000870B5040004D094F8F0
:102520004100002510B106E0012070BD84F8405044
:10253000204600F023F8242084F841002068C16878
:1025400021F40051C160204600F024FB206801699D
:1025500021F4904101612068416921F02A01416123
:102560002068C16841F40051C1606564202084F88E
:10257000410084F842006563002070BD30B585B02D
:10258000002400940194029403940068184988423E
:102590002CD11848816941F480418161816901F43D
:1025A00080410491816941F0040181618069124D8B
:1025B00000F0040004904FF400700090022001909D
:1025C0000320039069462846FFF794F82815CDE9C3
:1025D0000004694628460294FFF78CF80022114651
:1025E0002520FFF7EDF92520FFF7DCF905B030BD18
:1025F00000380140001002400008014090F84230CD
:10260000202B01D00220704721B11AB100230363AF
:1026100000F01CBB0120704770B50068104988426B
:102620001DD1104C00252046A17A0F4A00780D29B3
:1026300007D00A2905D0632807D21154401C207006
:1026400004E01554084800F09DFD25700549BDE8DB
:102650007040054801220A314838FFF7CFBF70BDEE
:102660000038014000000020D40000202DE9F8438C
:10267000044690F84100984616460D46202802D0A0
:102680000220BDE8F88385B17EB10020606421207E
:1026900084F84100FFF728F9A6848146E684A06803
:1026A0002027B0F5805F02D003E00120E9E7206930
:1026B00010B12E4600250EE000260CE080212046B9
:1026C00000F0DFFAA8B9C6B116F8010B216848601E
:1026D000E08C401EE084E08C4B464FF00002CDF8C9
:1026E00000800028EAD14FF04001204600F0C9FAEE
:1026F00040B184F841700320C3E735F8020BC0F302
:102700000800E3E784F841700020BAE77047FEE76D
:10271000F0B587B00DF1300C04469CE8E1008DF86F
:102720001670ADF80C00ADF8146004958DE80E003D
:10273000684600F011F8182269462046FDF795FE1C
:1027400007B0F0BD034B8032595C1144C9B200F0B0
:10275000E5BB0000723A000810B50446807D88B1E0
:102760003821204600F0DAFB0121204600F0D6FB9C
:102770000C21204600F0D2FB2046BDE81040062187
:1027800000F0CCBB3321204600F0C8FB32212046AC
:1027900000F0C4FB2821E4E770B50D46064600248E
:1027A00005E0295D304600F0D3FB641CE4B2284606
:1027B000FDF7F1FDA042F4D870BD00002DE9F04115
:1027C00086B0002426480094019402940394816901
:1027D00041F020018161816901F02001049181694A
:1027E00041F004018161816901F004010491816972
:1027F00041F00801816180691A4F00F0080041F63C
:10280000FF050490002229463846FFF768F8DFF8F4
:10281000588000224FF678014046FFF760F8009597
:10282000022601250396CDE9015469463846FEF794
:1028300061FFE802009001AA112082E86100694668
:102840004046FEF757FF4FF27800CDE90005CDE98D
:10285000024669464046FEF74DFF06B0BDE8F081EE
:102860000010024000080140000C014010B586B085
:10287000002417480094019402940394049413498B
:10288000059401604721C0E901144FF6FE71C0E9CB
:1028900003148461FFF77CFB08B172B6FEE74FF4C6
:1028A0008050009069460A48FFF7E6FB08B172B60F
:1028B000FEE7049404A906480594FFF735FB0028B9
:1028C00001D072B6FEE706B010BD0000000800405F
:1028D000440000200E4810B50C4901604FF4165119
:1028E0004160002181600C22C160C0E90412816155
:1028F000C161FFF711FE08B172B6FEE7BDE81040F6
:10290000012204490248FFF779BE00000038014067
:102910008C0000200A000020FEE7FEE770477047A9
:10292000FEF7E8BF30B58FB028216846FDF7CFFD30
:1029300014210AA8FDF7CBFD01210804CDE9001000
:102940000024029402250491CDE907504FF4E010D1
:1029500009906846FFF742F908B172B6FEE70F200A
:10296000CDE90A054FF48060CDE90C4002210AA8A8
:102970000E94FFF757F8002801D072B6FEE70FB0AB
:1029800030BD70470148FFF7E6BB0000440000205F
:10299000F0B50268194B1A4C1A4D4FF08047984217
:1029A00005D0B84203D0A04201D0A84203D122F002
:1029B00070064A683243984205D0B84203D0A0421C
:1029C00001D0A84203D122F44074CA6822434C6962
:1029D00022F08002224302608A68C2620A68826230
:1029E000984201D109690163012141610169C90767
:1029F00003D0016921F001010161F0BD002C01400B
:102A0000000400400008004010B5846842EA032238
:102A100024F47F440A432243826010BD826822F07E
:102A200070020A4342F007018160704710B5036AE3
:102A3000046A24F001040462846924F0F00444EA86
:102A4000021423F00A020A438461026210BD10B529
:102A5000036A046A24F010040462846923F0A0036A
:102A600024F4704444EA023243EA011182610162B3
:102A700010BD10B5406A0021C185C184FFF714FC68
:102A800010BD01680C3151E8002F22F4907241E82A
:102A90000023002BF5D10168143151E8002F22F0FA
:102AA000010241E80023002BF5D1016B012909D176
:102AB00001680C3151E8002F22F0100241E8002398
:102AC000002BF5D1202180F84210002101637047CE
:102AD00008B590F84210222901D0022008BD826872
:102AE0004FF480539A4201D1016921B1816A9A421F
:102AF0001BD04AB10AE00268816A5268C2F3080238
:102B00000A80816A891C08E0026972B10268526811
:102B100002F07F020A70816A491C8162C18D491EE0
:102B20000904090CC18503D01BE002685268F1E773
:102B30000168CA6822F02002CA600168CA6822F4EB
:102B40008072CA6001684A6922F001024A6120214C
:102B500080F8421000214163026B012A03D0FFF785
:102B60005BFD002008BD016301680C3151E8002FB6
:102B700022F0100241E80023002BF5D101680A6819
:102B8000D20602D50A6849680091818DFFF78BFB58
:102B9000E7E7000070B5044600680169E26821F4C7
:102BA0004051114301612169A068084361690843EC
:102BB0002168CA6841F20C639A430243CA602068E4
:102BC0004169A26921F44071114341611E492068A5
:102BD000884202D1FEF7CCFF01E0FEF7B9FF00EB1F
:102BE000C00101EB0012606864218000B2FBF0F3C9
:102BF000B3FBF1F36FF018067343B2FBF0F5B2FBD1
:102C0000F0F605EB8305322303EB0515B5FBF1F573
:102C1000B6FBF1F605F0F00505EB0615B2FBF0F694
:102C2000B2FBF0F0B0FBF1F06FF01802504306EB8E
:102C3000800003EB0010B0FBF1F0216800F00F0002
:102C40002844886070BD00000038014081628285A0
:102C5000C28500214164222180F84210016921B11E
:102C60000168CA6842F48072CA6001684A6942F029
:102C700001024A610068C16841F02001C160002082
:102C800070472DE9F843984617460D460446089EBE
:102C900024E0701C22D0FEF727FEA0EB0800B04213
:102CA0001AD8CEB12068C168490717D5802D15D034
:102CB000402D13D00168C94309070FD401680025CE
:102CC000406800902046FFF7DCFE0820606484F82E
:102CD00040500120BDE8F8830320FBE7206800682E
:102CE00035EA000004D00020B842D2D00020F1E73D
:102CF0000120F9E70148FFF7D9BA00008C00002055
:102D0000FEE7490050EAC12018BF04204A0D18BF51
:102D100040F0010040F2FF72B2EB515F08BF40F09B
:102D20000200012808BF052070470907090E002886
:102D300004DB00F1E02080F80014704700F00F0081
:102D400000F1E02080F8141D704730380A2801D2C5
:102D5000012070470020704770B5144E0C460546A0
:102D6000012278213046FEF7BAFD11480168114A68
:102D700001F47F41525D11430160012C0CD0022C03
:102D80000DD0032C0ED0042C0FD100224021304650
:102D9000BDE87040FEF7A3BD00220821F7E700223E
:102DA0001021F4E700222021F1E770BD000C014062
:102DB0000C0801402800002030B5054618488BB0AB
:102DC0001C46807828B3104600F06EFB0B46024686
:102DD00014A16846FDF708FA204600F065FB02469C
:102DE0000B4612A105A8FDF7FFF90922002128468C
:102DF000FFF7A8FC69462846FFF7CEFC092201210F
:102E00002846FFF79FFC05A92846FFF7C5FC0BB035
:102E100030BD084600F048FB0B46024605A1D8E746
:102E200000000020252E3266DF460000252E326687
:102E300025250000252E3266DF43000070B50546CB
:102E400000F082FC044600F09BFC294600F090FD57
:102E5000194900F0C1FC00F077FC0A2194FBF1F362
:102E600094FBF1F201FB134390FBF1F4E5B290FB0C
:102E7000F1F401FB1400114CD2B2DBB2E178C0B224
:102E8000012906D0022907D0032912D0042907D12D
:102E900004E00121104601E002211846FFF75CFF23
:102EA000E078401CC0B2E070042801D90120E07035
:102EB00070BD03212846F1E70000C8420000002051
:102EC000002280210148FEF70ABD000000080140F1
:102ED0002DE9F04117460E46054600240DE06868CE
:102EE00026FA04F202F0010230F81410286850F8B3
:102EF0002400FEF7F4FC641CE4B2BC42EFD3A98AC0
:102F000001222869FEF7EBFC0120FEF7E1FBA98A0C
:102F10002869BDE8F0410022FEF7E1BC70B50D461E
:102F20000446818980680022FEF7D9FCA07D30B17B
:102F3000082229462046BDE87040FFF7C9BF29098D
:102F400004222046FFF7C4FF05F00F010422F1E739
:102F500070B50D460446818980680122FEF7BFFCEA
:102F6000A07D30B1082229462046BDE87040FFF719
:102F7000AFBF290904222046FFF7AAFF05F00F0181
:102F80000422F1E798B0FEF7BDFCFFF7CBFCFFF79A
:102F900015FCFFF76BFCFFF79DFC5C48FFF744F85E
:102FA0005B480DF1300C00F108011EC98CE81E00D1
:102FB000D0E90010CDE910104FF400600021554B0E
:102FC0004200CDE90201CDE9002310AA0CA912A804
:102FD000FFF79EFB182212A906A8FDF746FA002269
:102FE000114606A8FFF7AEFB4BA106A8FFF7D4FBDE
:102FF000C820FEF76DFB0022012106A8FFF7A2FB07
:1030000048A106A8FFF7C8FBC820FEF761FB022510
:10301000464CEF1E60780528FCD2DFE800F0030480
:10302000065D6800F6E76570F4E7FEF78DFAE0B339
:10303000FEF73CFA2071FEF739FA6071FEF736FAB6
:10304000A071FEF733FAE071FEF730FA2072024603
:10305000207966798046A17930444318E0790344A9
:10306000DBB26372934220D17F2903D900F0A0FB29
:103070002F4904E040EA012000F09AFB2D4900F0BE
:10308000A1FA2D49206100F0A7FB2C4900F09AFA23
:103090004FF0844100F034FA606146EA082000F005
:1030A00087FB274900F08EFAA0611848A2694830D2
:1030B000216900F081F9103406A894E80E00103C54
:1030C000FFF77AFEFFF7FCFE2069FFF7B7FE4FF42B
:1030D0007A70FEF7FDFA9DE70120A0810B4865702C
:1030E0003B46122217A14830FFF7C0FA92E7074883
:1030F0003B46102218A14830FFF7B8FA02E0322010
:1031000000F034F86078042884D1F8E74400002007
:10311000783A0008000801404E6869657420646FC1
:103120003A000000446F20616D3A0000000000206A
:10313000000020C10000C843000010410000A04072
:103140000000484353797374656D205245535441D0
:10315000525445440D0A000053797374656D205331
:10316000544F505045440D0A00000000044900220D
:103170000B685A6209684A6A8242FCD370470000B1
:10318000440000202DE9F04105460C2237A1FDF74F
:1031900021F90026394C01274FF0FF3808B338A138
:1031A0002846FDF7BBF9002834D036A12846FDF7A4
:1031B000B5F9002833D034A12846FDF7AFF900282F
:1031C00032D033A12846FDF7A9F9002838D032A122
:1031D0002846FDF7A3F9002838D04346112230A134
:1031E0003BE00C3533A12846FDF798F940B132A1F8
:1031F0002846FDF793F940B1434616222FA12CE053
:10320000A67043461D2233A127E0A7704346202223
:1032100038A122E0677043460E223FA11DE0667090
:1032200043460F2240A118E0607828B10220607068
:103230004346102240A110E043461D2243A10CE06A
:10324000032060704346122248A106E0607848B12E
:10325000042060704346102249A1BDE8F0414D486A
:10326000FFF704BA43461C224BA1F6E75345545FCF
:10327000444953504C4159200000000000000020F8
:103280004F4E00004F464600535441525400000038
:10329000524553544152540053544F5000000000C3
:1032A000496E76616C696420636F6D6D616E640D4B
:1032B0000A0000004300000046000000496E7661ED
:1032C0006C696420646973706C6179206D6F6465EA
:1032D0000D0A0000446973706C6179206D6F64653C
:1032E0002073657420746F2043656C736975730D6A
:1032F0000A000000446973706C6179206D6F646529
:103300002073657420746F2046616872656E68650D
:1033100069740D0A0000000053797374656D2069AB
:1033200073204F4E0D0A000053797374656D206948
:1033300073204F46460D0A0053797374656D205310
:103340005441525445440D0A0000000043616E6E22
:103350006F742053544152542C2073797374656DEB
:10336000206973204F46460D0A000000537973749C
:10337000656D205245535441525445440D0A000096
:1033800053797374656D2053544F505045440D0A62
:10339000000000008C00002043616E6E6F742053AB
:1033A000544F502C2073797374656D206973204FCE
:1033B00046460D0A00000000F0B505461D481646B9
:1033C0000F4682898DB0511C81811BA16846FCF794
:1033D0000BFF6846FCF7DFFF82B24FF47A74234696
:1033E00069462846FFF742F9384600F05DF8024684
:1033F0000B4615A16846FCF7F7FE6846FCF7CBFFC5
:1034000082B2234669462846FFF730F9304600F07D
:103410004BF802460B4611A16846FCF7E5FE6846EC
:10342000FCF7B9FF82B2234669462846FFF71EF92A
:103430000DB0F0BD000000204C616E20646F3A209A
:1034400025640D0A000000004E6869657420646FF1
:103450003A20252E326620430D0A0000446F206179
:103460006D3A20252E32662025250D0A0000000029
:1034700010B500290AD00878002807D005487844FC
:10348000FDF74CF8002801D0002010BD0248784418
:1034900010BD0000F2060000EA0600000808A0F5D2
:1034A00000114FEA3101704743004FEAD30C4FEA55
:1034B0003C0C43401FBF40070CF1605113F0FE4F1E
:1034C00070471CF0006F03D100200CF000417047E2
:1034D0000CF0004343EA507010B540EACC0000F015
:1034E000FCF900BF000000924FEA0001FFF7D6BFD1
:1034F0004FF000414FF00000A1F50021704700009F
:1035000090EA010F48BF81F0004100F14282421A67
:103510003CBF801A89184FEAD0524FF07F4C1CEA0A
:10352000410FA2EBD15318BF9CEA026F00F03B8021
:103530004FF0004C4CEA00204CEA012121FA03FC38
:1035400010EB0C0C1ED202F1FF325FEA1C2040EBA4
:10355000C25038BF70471CF07F0F4FEA400C18BFB5
:10356000BCF17F4F38BF7047C3F12003994008BFBB
:1035700020F00100BCF17F4F38BF7047A0F1C04080
:1035800000F0F1B94FEA3C00000A40EBC25028BFFE
:103590001CF0FF0F4FEA400CE6D018BFBCF17F4F84
:1035A00038BF7047EAE79CEA026F05D010EA5C0F6B
:1035B00008BF00F00040704710B500F08EF900BF62
:1035C00064FBBE3E4FF47F0C1CEAD0121EBF1CEA07
:1035D000D11392EA0C0F93EA0C0F00F0858090EA69
:1035E000010F48BF42F4807240F4000C41F4000027
:1035F0002CF07F4120F07F4000B58142A2EB030216
:103600000FF2081CACEB504EC0F100009EF800E039
:103610004FEA4E0E00FB0EFC38BF49004FEA2C1C4F
:1036200002F5FA020CFB0EF34FEACE1E4FEA112C04
:103630004FEAC1210EEB635E42EB22420EFB0CFC13
:103640004FEA1C5300FB03114FEA112C4FEA0131E2
:103650000EFB0CFC4FEADC4C00FB0C11C14228BFF6
:1036600009184CEB03335DF804EB10EB410143EB1D
:10367000C250B2F57C0F38BF704729D512F0F00F59
:103680001CBF00F1C04000F0004070470081828301
:103690008485868788898B8C8D8E8F919293959661
:1036A00097999A9C9D9FA0A2A3A5A7A8AAACAEB0EB
:1036B000B2B3B5B7B9BCBEC0C2C5C7C9CCCED1D4F0
:1036C000D7D9DCDFE2E6E9ECF0F3F7FAFE00000020
:1036D0004FEA400C0CF1807CBCF17E4F28BF704754
:1036E000B0F1C04000F03FB990EA010F0CEAD113ED
:1036F00048BF42F48072624538BF634507D213F475
:103700007F0F16D080EA010000F00040704710B52E
:1037100000F0E3F8097EFC3E00F005B880EA010005
:1037200000F00040704780EA010000F0004000F027
:103730001AB912F47F0F04BF0248704780EA0100F3
:1037400000F011B90000C07F41000B0ED3F19E02C2
:1037500008D950F400034FEA032323FA02F048BFCC
:103760004042704710B500F0B8F800BF499224807D
:10377000002070476FF0004282EA2000704700008E
:1037800010F0004148BF4042B0FA80F310FA03F253
:10379000C3F19D030BD051EAC35101EB1220530634
:1037A00038BF704700F1010008BF20F001007047EA
:1037B000B0FA80F310FA03F2C3F19D030AD0D905E1
:1037C00001EB1220530638BF704700F1010008BF1B
:1037D00020F00100704700004FF47F0C1CEAD0126B
:1037E0001EBF1CEAD11392EA0C0F93EA0C0F00F0F3
:1037F000478090EA010F48BF42F480724FF0004CBE
:103800004CEA00204CEA012102EB0302A0FB011369
:10381000A2F50002002918BF43F001035B0028BF96
:103820004FEA330342EB22425FEA132C4CEBC250C7
:103830002EBFBCEB436FB2F57C0F70474FEA036CB1
:10384000BCF1004F08BF20F00100B2F57C0F38BF7B
:1038500070470BD582F0FF0212F5803FC8BF70475A
:1038600000F1C040D8BF00F00040704700F5000CE8
:103870005FEA4C0C48BF7047B0F1C04000F073B82D
:1038800090EA010F0CEAD11348BF42F480726245FE
:1038900038BF634504D280EA010000F00040704761
:1038A00010B500F01AF800BF8900013E00F007B81B
:1038B00000F009B85FEA410C5FEA1C6C08D080EAAE
:1038C000010000F050B85FEA400C5FEA1C6CF6D1D2
:1038D0004FF00040A0F5800070470EF1020E2EF070
:1038E000030E5EF8044B244204D44FEA4102B2F1C5
:1038F0007F4F11D84FEA4003B3F17F4F0CD80ED160
:103900004FEAD07CB2F17F4F0CEB4C0C0CF1020C67
:1039100008BF4CEBD17C04E04FF0080C01E04FEA0B
:10392000D17C0CEB4C0324FA03F404F00704B4F14B
:10393000040C06D20EEB840CBDE810404CF0010CD8
:103940006047DFE80CF0070802024FF00040A0F5E6
:10395000800010BD0846420018BFD2F1807288BFB7
:1039600000F0004010BDFF2141EAD050C005704773
:1039700080F0004090EA010F7FF5C9AD81F0004171
:1039800000F007B890EA010F48BF81F000413FF511
:10399000BEAD421A04D882F00042A0EB02001144EE
:1039A0004FEAD0524FF07F4C1CEA410FA2EBD153AB
:1039B00018BF9CEA026F4AD04FF0004C4CEA00203E
:1039C0004CEA012121FA03FCB0EB0C0C0FD412F0ED
:1039D000FE0F36D05FEA4C001DD5001240EBC250FE
:1039E00038BF70471CF03F0F18BF70470BE0A2F1C3
:1039F00001025FEA1C2040EBC25038BF70471CF048
:103A00007F0F18BF7047C3F12003994014BF401EB9
:103A100020F00100704780084FEA122308BF70476A
:103A2000B0FA80FCA2EB0C02CCF1280C60FA0CF08E
:103A300093EA122F04BF00EBC25070474FEAC370E5
:103A40007047130A5FEADC1008BF7047F6E79CEA8C
:103A5000026F04D010EA5C0F08BF0020704710B559
:103A6000FFF73BFF40DFF63E81F000407047FCF778
:103A7000CABE00401050000000100020004000802E
:103A8000000C0140000C0140000C0140000C014002
:103A9000010202030405060708090A0B0C0D0E0FAC
:103AA00010100000000000000000010203040607DF
:103AB00008090000000001020304000002400000A9
:103AC000000000A00000000005400000000000C849
:103AD000000000000C4000000000409C00000000BE
:103AE000194000000020BCBE00000000344000006F
:103AF000BFC91B8E00000004B5400000504BCFD062
:103B00006607E2CF010000006C4100003E8251AA2E
:103B1000DFEEA73401000000D9420000DCB5A0E2CE
:103B20003A301F97FFFFFFFFB4450000FD25A0C8F6
:103B3000E9A3C14FFFFFFFFFFF3F0000000000802F
:103B400000000000FF3F00000000008000000000B7
:103B50008C3B000800000020440000002801000801
:103B6000D03B000844000020540700004401000836
:103B70001C00000043000000F8FFFFFF0C000000E5
:103B80000E0000000F0000002E00000000000001E9
:103B90000000000000000000000000000000000025
:103BA0000000000000000000000000000000000015
:103BB00000000000C0F9A4B0999282F88090000043
:103BC00001000000100000000000000000127A0058
:04000005080000ED02
:00000001FF
