:020000040800F2
:1000000098070020B9010008DD2B00083D2B0008EF
:10001000D92B00083D100008152D00080000000035
:10002000000000000000000000000000E52B0008B8
:100030001912000800000000E12B0008E92B00085D
:10004000D3010008D3010008D3010008D301000840
:10005000D3010008D3010008D3010008D301000830
:10006000D3010008D3010008D3010008D301000820
:10007000D3010008D3010008D3010008D301000810
:10008000D3010008D3010008D3010008D301000800
:10009000D3010008D3010008D3010008D3010008F0
:1000A000D3010008D3010008D3010008D3010008E0
:1000B000D3010008D3010008F12B0008D301000888
:1000C000D3010008D3010008D3010008D3010008C0
:1000D000D3010008092D0008D3010008D30100084E
:1000E000D3010008D3010008D301000800F002F892
:1000F00000F053F80AA090E8000C82448344AAF16F
:100100000107DA4501D100F048F8AFF2090EBAE86C
:100110000F0013F0010F18BFFB1A43F0010318473B
:10012000A4460000C4460000103A24BF78C878C135
:10013000FAD8520724BF30C830C144BF04680C60ED
:10014000704700000023002400250026103A28BF35
:1001500078C1FBD8520728BF30C148BF0B60704739
:10016000662904F04482652904F04182672904F07D
:100170003E82612904F03D82642900F079800020EC
:1001800070471FB500F024FE04000020002103F09A
:1001900039FFE0601FBD10B510BD00F019FF11461A
:1001A000FFF7EFFF02F01CFF00F037FF03B4FFF78B
:1001B000F2FF03BC00F03AFF0948804709480047B6
:1001C000FEE7FEE7FEE7FEE7FEE7FEE7FEE7FEE707
:1001D000FEE7FEE704480549054A064B7047000064
:1001E000ED2B0008ED000008980100209807002082
:1001F00098030020980300200FB41CB5074B06AAF3
:100200007B4469460090059800F0C9FD00206946CE
:1002100000F0D8FD1CBC5DF814FB0000C10B000011
:1002200070B5044685690068C10601D5302600E036
:100230002026C00707D070BDD4E901213046904781
:10024000206A401C20626D1EF6D570BD70B5044654
:1002500085690078C00707D170BDD4E9012120204D
:100260009047206A401C20626D1EF6D570BD0000CC
:100270002DE9F0410646002410687529314616A57F
:1002800010D0AFF30080002802DA404213A507E047
:1002900031688A0701D512A502E0490704D511A5E6
:1002A000012401E0AFF3008000210A2206F12407B7
:1002B00009E0B0FBF2FCB0FBF2F302FB1C003030B3
:1002C00078541846491C0028F3D123462A46304664
:1002D000BDE8F04100F079B9000000002D000000F9
:1002E0002B000000200000002DE9F05F8946044645
:1002F0004FF0000ADFF874B1FB44C0F820A020469C
:10030000E1688847002874D0252806D0D4E9012167
:100310009047206A401C2062F1E700265F46204695
:10032000E16888472028054607DB312D05D278197A
:1003300010F8200C08B10643F1E7B00701D526F00C
:100340000406C4F81CA00027C4F818A02A2D09D060
:10035000284603F04FFE38B304EB8708303DC8F859
:10036000185019E059F8041B204604EB87029161EC
:10037000E1688847012F054618D1E069002820DA96
:1003800026F020061DE0D8F8180000EB800005EBF1
:1003900040003038C8F818002046E1688847054614
:1003A00003F028FE0028EED1012F0AD02E2D08D10F
:1003B0002046E16888477F1C0546022F46F020064C
:1003C000C4DBA069002803DA404246F00106A061C0
:1003D000F00701D026F010066C2D0BD0682D09D047
:1003E0004C2D39D06A2D35D0742D35D07A2D33D09F
:1003F00016E038E0E1682F4620468847B8420546B7
:1004000009D16C2F26D04FF48060E1680643204666
:100410008847054604E06C2F1AD04FF480700643DD
:100420000DB3A5F14100192802D8203546F4006625
:100430004A462946204626604E46FFF791FE80B187
:1004400001280BD0F61D26F0070000F1080956E739
:100450004020E4E78020D8E70020D6E706F1040931
:100460004DE7284652E7206ABDE8F09FFA420000B7
:1004700010B5431C02E010F8011B71B18107FAD1DD
:100480004FF0013202C88C1A8C4314EAC211F9D021
:10049000C01A0A0603D0C01E10BDC01A10BD0A043F
:1004A00001D0801E10BD0902FCD0401E10BD40EAE4
:1004B000010370B59B072ED14FF00136042A2AD3D1
:1004C00008C810C99D1B9D43121F15EAC61517D0F9
:1004D000D8B2E1B2401A50EA056110D198B2A1B287
:1004E000401A50EA05410AD123F07F4024F07F41B1
:1004F000401A50EA052102D1180EA0EB146070BD1D
:10050000A342DBD018BA21BA884201D9012070BDBC
:100510004FF0FF3070BD0AB9002070BD10F8013BEC
:1005200011F8014B63B1A3420AD1521E08D010F852
:10053000013B11F8014B1BB1A34201D1521EEDD179
:10054000181B70BD4FF0013C50F8042B51F8043BD0
:100550009A4221D1A2EB0C03934313EACC1317D197
:1005600050F8042B51F8043B9A4215D1A2EB0C032E
:10057000934313EACC130BD150F8042B51F8043BEE
:100580009A4209D1A2EB0C03934313EACC13DBD0BC
:100590004FF00000704700BFD01A01BAB1FA81F1E4
:1005A00001F0180122FA01F0CB40DBB2C0B2C01A50
:1005B000C1F120012CFA01F3D11A914311EAC311C0
:1005C000E6D170477047704770472DE9F0470D46F8
:1005D00099469246044600F124080168880604D52D
:1005E000E06921F01001216000E00120A84201DD56
:1005F000471B00E00027A1697A1902EB0900081ADD
:10060000A0612078C00602D42046FFF709FE00262C
:1006100008E0D4E901211AF806009047206A401C3E
:10062000761C20624E45F4DB2078C0060AD52046B1
:10063000FFF7F6FD06E0D4E9012130209047206A5B
:10064000401C2062381EA7F10107F4DC07E0D4E962
:10065000012118F805009047206A401C2062281EDE
:10066000A5F10105F3DC2046FFF7F0FD2078000638
:1006700002D50220BDE8F0870120FBE72DE9FF4FFE
:100680000C461E464FF0FF378BB0D2E90001DDF873
:1006900060800A908A46C1F30A5505B93D4600219B
:1006A00008464FF00000BAF1000F00F4400005DAF0
:1006B00000EB80004FF4400101EA50004FEA9059EE
:1006C000B9F1010F00DDB9460A9850EA4A000ED090
:1006D00044F61050A5F2FF3545432F14B8F1000F32
:1006E0001ED07542291E1EDDC9F100021CE0B8F1C2
:1006F000010F4FF0000001D0302103E0F24305E08C
:100700002154401CB042FBDB304600220021215422
:100710000B99C1F80880C1E900200FB0BDE8F08F47
:10072000BD1B6D1CDEE74A4600DA694206A800F0F0
:10073000D9FB06AB93E8070003AB83E807005046FC
:100740000A9903F07BF88DE80700A0F500501F38E8
:1007500000900398002D0ADD42F21F014A4608442A
:10076000002303A90390684603F0E4FA09E0A0F52A
:1007700000504A461F38002303A90390684603F03F
:10078000EEFA8DE807000004000C03D04FF0FF30B4
:10079000410800E01046B8F1000F03D0002200929B
:1007A00015461EE0751E05D400F016FB303262556A
:1007B0006D1EF9D5B3460122084302D000227F1CEA
:1007C00004E02078302801D100227F1E002A0997FA
:1007D00084D01DE0112D07DA00F0FEFA30326255A8
:1007E0006D1C50EA0102F5D1084302D00098C8B14F
:1007F0000EE00021681E05E0235C625C6354225415
:10080000401E491C8142F7DBAB46A81B401E0990E5
:10081000002004F80B000B98099AC0F80880C0E982
:10082000002B7AE711264FF0000857E72DE9F04F2B
:1008300088460446D21D22F0070191B0D1E900019B
:10084000CDE90A0103F0C2FB02460B98C00F01D0AC
:100850002D2007E02068810701D52B2002E0202110
:1008600001EAC000032A099001D0072A05DB0346EC
:100870004146204600F0F6FA0BE12078800601D5CB
:10088000E06900E00620B8F1650F814606D0B8F1B6
:10089000660F18D0B8F1670F70D131E00020B9F1C0
:1008A000110F009001DB112301E009F101030AAAF5
:1008B00001A90CA8FFF7E2FEDDE90C70002609F1A2
:1008C0000105834647E001204B4600904FF000476A
:1008D0000AAA01A90CA8FFF7D1FEDDE90DB00C9919
:1008E0005D46002610B909F101000D18B9EB0500AD
:1008F00003D4C0F1FF3609F10105A5EB09002BE097
:10090000B9F1010F01DA4FF001090020B9F1110F1F
:100910000090484601DD112300E003460AAA01A920
:100920000CA8FFF7ABFEDDE90C704D4600268346B0
:10093000207800070AD4AB4500DA5D4601A8012DF6
:1009400004DD411911F8011C302907D04F4502DAA6
:1009500017F1040F04DA012082460FE06D1EEEE766
:10096000002F02DCED1B3E4403E0781CA84200DDB2
:100970007D1CB81B00F1010A4FF0004720780007EA
:1009800003D4AA4501DB4FF0FF3A0021B7F1004F35
:100990000DF143088DF8431024D002202B23002FA3
:1009A00001DA7F422D230A21021EA0F1010000DCA2
:1009B0005FB197FBF1FC97FBF1F201FB1C7C174642
:1009C0000CF1300C08F801CDEEE7A8F1010003703E
:1009D0002188090501D5452100E06521A0F1010824
:1009E00000F8011C09980FA9A1EB0807FF1D00B131
:1009F0000120411901EBEA70A1693844081A401E30
:100A0000A0612078C00602D42046FFF709FC0998AF
:100A100028B1D4E901219047206A401C2062207847
:100A2000C00622D52046FFF7FBFB1EE0002E04DBAC
:100A3000B34502DD01A8805D00E03020D4E901214A
:100A40009047206A401C2062761CAAF101005FEAF0
:100A5000000A0AD100F0BCF9C0680168405CD4E922
:100A600001219047206A401C2062281EA5F1010543
:100A7000DCDC07E0D4E9012118F8010B9047206A7B
:100A8000401C2062381EA7F10107F3DC2046FFF767
:100A9000DDFB032011B041E62DE9F04F04460D4681
:100AA000D21D22F0070089B0D0E9009748463946A8
:100AB00003F08CFA0246F80F01D02D2307E02068DE
:100AC000810701D52B2302E0202101EAC0038DF824
:100AD00020300BB1012000E00020032A824601D023
:100AE000072A04DB2946204600F0BCF93FE12078C4
:100AF000800601D40D2500E0E569C7F30A560D2DE7
:100B000049DA00214FEA175B08464FF00000002F3A
:100B100000F4400007DA00EB80004FF4400100EBE6
:100B2000D07001EA60008115012901DD4FF0FF312D
:100B300000224FEA850CBCF1180F06D31346ACF126
:100B400018004FF08052C24003E04FF4801323FAA4
:100B50000CF30CF10C0CBCF1200F04D3ACF1200C05
:100B600009FA0CF001E007FA0CF000294FF00048F8
:100B700001DD18B90FE00ED140450CD319EB020985
:100B80005F4121B9404502D19F4329EA0209BBEBED
:100B9000175F00D0761C2088000502D57B4878447A
:100BA00002E07A487844193808AA302302F80A305B
:100BB000037C0AF10101002E0AF1020A53546A462D
:100BC00002DC4FF0300101E04FF031014FF001083D
:100BD0008DF8001002D0A6F2FF3603E059EA470173
:100BE00000D06B4E002D02DC2178090704D54FF0B0
:100BF00002082E218DF80110C44600210BE0C7F336
:100C000003433F01C35C491C6D1E02F808300529EF
:100C100008F1010801DA002DF1DC00210CE000EB05
:100C20001973491C1B786D1E082902F808304FEA19
:100C3000091908F1010801DA002DF0DC21688B06A2
:100C400002D516E0A8F10108E04505DD02EB080336
:100C500013F8013C302BF5D0B8F1000F09DD02EBA1
:100C6000080313F8013C2E2B03D1090701D4A8F186
:100C70000108002D05DD3E2102F808106D1E08F167
:100C80000108407C002E02F8080008F1010804DA8F
:100C90002D20764202F8080002E02B2002F808001E
:100CA0000A214FF47A70864208F101080BDB96FBAB
:100CB000F0F3303302F8083096FBF0F308F1010846
:100CC00000FB136601E0642E0CDB642096FBF0F35E
:100CD000303302F8083096FBF0F308F1010800FB0E
:100CE000136601E00A2E06DB96FBF1F0303002F8C5
:100CF000080008F1010896FBF1F001FB10603030AC
:100D000002F80800A16908F1010808EB050202EBEE
:100D10000A00081AA0612078C00602D42046FFF716
:100D20007FFA216A08AE01EB0A00206204E0D4E9F0
:100D3000012116F8010B9047BAF1010AF7D2207889
:100D4000C00602D52046FFF76BFA6E4609E016F89A
:100D5000010B3E280FD0D4E901219047206A401CA6
:100D60002062B8F10108F2D22046FFF76FFA09B00D
:100D70000320BDE8F08F206A2844206203E0D4E914
:100D80000121302090476D1EEBD3F8E7783A000040
:100D900002FCFFFF01694A1C02610878704700B538
:100DA0008FB0CDE901310021059105497944CDE9A4
:100DB000031011466846FFF797FA0FB000BD000018
:100DC000E5FFFFFF0A6802F8010B0A6070470000A8
:100DD000004870473800002030B5B0F10A0271F1C8
:100DE00000034FEA900E4EEA817EB0EB0E0061EBFD
:100DF00091014FEA101E4EEA017E10EB0E0041EB0E
:100E000011114FEA102E4EEA016E10EB0E0041EB6D
:100E100011214FEA104E4EEA014E10EB0E0041EB4D
:100E20001141401841F100014FEAD00040EA417001
:100E30004FEAD1014FEA810444EA907410EB800537
:100E400044EB01046D1944EB0404521BA3414FF021
:100E5000000348BF0A3200D530BD401C41F10001FB
:100E600030BD00002DE9F0411F460446032601680D
:100E7000072A01F4006004DB08B116A505E016A5F9
:100E800003E008B115A500E015A521F010002060D1
:100E9000A069C01EA0610FB1401EA0612046FFF7EF
:100EA000BFF94FB1D4E9012138469047206A401C70
:100EB0002062C01C206206E0206AFAE7D4E9012122
:100EC00015F8010B9047761EF8D22046FFF7BEF9C1
:100ED000BDE8F0814E414E006E616E00494E460005
:100EE000696E66002DE9F047814616468AB035489E
:100EF00078440DC88DE80D0032487844801C03AC5E
:100F00000DC884E80D0041F69B300844372190FB62
:100F1000F1F290FBF1F5A5F1800501FB12041B3CF9
:100F200002D56442012000E00020DFF898A080464E
:100F30000027FA44AAF1BE0A0EE0E0070AD03246C2
:100F4000684607EB470101230AEB810102F007FF26
:100F50008DE8070064107F1C002CEED1194F7F44F0
:100F6000AE3F19E0E80715D007EB04100DF1180AA1
:100F700090E80E008AE80E00C068F04201D198198E
:100F800008903246012306A903A802F0E8FE03AB4D
:100F900083E807006D10641C002DE3D14FF00103BE
:100FA00032466946B8F1000F03A802D002F0C2FE33
:100FB00001E002F0D4FEC9E90001C9F808200AB036
:100FC000BDE8F087B83700000048704718000020DF
:100FD0007546FFF7F9FFAE4605006946534620F017
:100FE0000700854618B020B5FFF7F4F8BDE82040AB
:100FF0004FF000064FF000074FF000084FF0000BD5
:10100000AC46ACE8C009ACE8C009ACE8C009ACE843
:10101000C00921F007018D46704710B50446AFF3B3
:1010200000802046BDE81040FFF7C0B801491820F5
:10103000ABBEFEE72600020070470000FEE700009E
:101040002DE9F04740F6004440F278064FF00008E2
:10105000C4F20104C2F200064FF00109002503E0CA
:101060000135082DBA4643D000F084FAB06100BFC4
:1010700000F080FAF06120464FF4006100F06EFA53
:1010800020B9D6E9060102308842F1D8306AC0F8AA
:10109000248000BF416A272908D8416A272905D83A
:1010A000416A272902D8416A2829F3D320464FF400
:1010B000006100F053FAC5F1070109FA01F14AEAAB
:1010C0000107002808BF2AEA010700F053FAB061BF
:1010D00000F050FAF06120464FF4006100F03EFA53
:1010E0000028BDD0D6E9060102308842F0D8B7E723
:1010F000F8B2BDE8F087000070B584B04FF400602E
:1011000040F6004400900120C4F201040190022046
:101110000390002569462046029500F011F920460B
:101120004FF40061002200F01FFA40F27806C2F28C
:101130000006306A44F61F6144F62062456200BF33
:10114000436A8B4208D8436A8B4205D8436A8B4274
:1011500002D8436A9342F3D320464FF40061012240
:1011600000F002FA306A0021416200BF416A1D2985
:1011700008D8416A1D2905D8416A1D2902D8416A4B
:101180001E29F3D3012000250290694620460195CF
:1011900000F0D6F8306A4562416A272908D8416ACA
:1011A000272905D8416A272902D8416A2829F3D37B
:1011B00020464FF4006100F0D1F94FF00005B0B9BE
:1011C000306A4562416A4F2908D8416A4F2905D8DB
:1011D000416A4F2902D8416A5029F3D320464FF47F
:1011E000006100F0BBF90546002818BF012500F09A
:1011F000C1F9B06100F0BEF9F06120464FF4006122
:1012000000F0ACF920B1D6E9060102308842F1D8ED
:10121000284604B070BD000070470000014690F8F9
:101220002100022816D10868D1E90FC3026822F014
:101230000E020260026822F001020260012000FA40
:1012400003F2CCF8042081F821000020002281F86C
:1012500020207047042088630120002281F820208C
:101260007047000080B590F82110022924D102684F
:10127000116821F00E0111602F211368C4F20201E0
:101280008A4240F20401C4F2020123F00103136018
:1012900016DD3023C4F202039A421DD04423C4F267
:1012A00002039A421CD05823C4F202039A421DD171
:1012B0004FF4803322E000BF04218163012080BD10
:1012C0000823C4F202039A420ED01C23C4F2020384
:1012D0009A420BD1102311E04FF480730EE000BF4F
:1012E0004FF480530AE000BF012307E001F1680CCE
:1012F0004FF08073624508BF4FF480130B600121EB
:1013000080F82110426B002180F820100AB190472C
:101310000021084680BD0000B0B5044600F02AF95F
:10132000054640F20C00C2F200000078611C18BFB4
:10133000044400BF00F01EF9401BA042FAD3B0BD28
:101340002DE9F04F82B00E68002E00F0038141F2CB
:101350000042C4F20102042340F2004E904208BF52
:1013600003234FF6FF7CC4F2010E009300240123F7
:10137000C1F2100C4FF0000A4FF0000949E000BF25
:10138000012704F00C030F229A402BEA020207FA0D
:1013900003F34FEA9A051A4346F82520D1F804B022
:1013A00040F20C455FEACB22DEF8082054BF22EA67
:1013B000080242EA0802C4F20105CEF808202A68B1
:1013C0005FEA8B2354BF22EA080242EA08022A603D
:1013D0005FEA8B33DEF8042054BF22EA080242EAB7
:1013E00008025FEACB33CEF80420DEF800204FF08D
:1013F000010354BF22EA080242EA0802CEF80020A4
:101400000E680AF1010A36FA0AF204F1040400F047
:10141000A18003FA0AF816EA080FF1D04E68664573
:1014200012DC122E56D8DFE806F0350B454955552B
:1014300055555555555555555555554D510000BFA8
:10144000D1F80C9046E000BF4FF6FF72C1F22102C6
:1014500096420FDC0022C1F2110296421AD00022FD
:10146000C1F21202964215D00022C1F22102964228
:1014700010D02FE00022C1F2220296420AD00022B0
:10148000C1F23102964205D00022C1F232029642E8
:1014900020D100BF8A684AB1012A14BFC0F8148065
:1014A000C0F810804FF0080914E000BF4FF00409A5
:1014B00010E000BFCA6802F108090BE04FF0000914
:1014C00008E000BFCA6802F1040903E0CA6802F13B
:1014D0000C0900BF22460646BAF1080F24BF203A85
:1014E000043637680F25954027EA050509FA02F208
:1014F0002A433260CA79D2067FF582AF41F21803DF
:10150000C4F202031A68AEF57E7642F001021A6058
:101510001A6802F001020192019A2AF0030256F8B9
:1015200002B040F60002C4F20102904210D040F630
:101530000042C4F2010290423FF422AF41F20002A5
:10154000C4F20102009F904208BF022719E700BFC2
:10155000002716E702B0BDE8F08F00008068084061
:1015600018BF012070470000002A08BF090401616C
:101570007047000040F29010C2F20000006870470F
:1015800040F20C0040F29011C2F20000C2F20001E1
:1015900000780A68104408607047000080B542F285
:1015A0000000C4F20200016841F010010160032054
:1015B00000F08EF80F2000F005F800F027F800206A
:1015C00080BD000070B540F20C06C2F2000640F289
:1015D00014013278C2F200014FF47A730968B3FB48
:1015E000F2F20446B1FBF2F1084600F063FB0F2C67
:1015F0004FF0010508D838B94FF0FF3021460022DE
:10160000002500F039F87460284670BD82B041F2C0
:101610001800C4F202000168022241F001010160D9
:10162000016801F0010101910199416841F0805187
:101630004160406800F08050009000980420C4F29F
:101640000100016862F31A61016002B07047000096
:10165000002848BF7047C1B200F01F00012202FA03
:1016600000F04EF20012CEF2000242EAD10121F067
:10167000030108607047000010B54EF60C5CCEF216
:10168000000CDCF80030C3F3022E8EF00704042CAB
:1016900028BF0424BEF103034FF0FF3E0EFA04F40A
:1016A00038BF0023A14399400EFA03F39A43114334
:1016B00000F00F0200F160430901043A03F56443AE
:1016C0006244002848BF02F10C03197010BD0000ED
:1016D0004EF60C51CEF200010A684FF6FF031A4095
:1016E00060F30A2242F0806040F0FD7008607047AD
:1016F0002DE9F04381B0002800F0858042F2000817
:10170000C4F202080446D8F800000D4600F00700B5
:1017100088420CD2D8F8000020F007002843C8F80F
:101720000000D8F8000000F00700A8426BD1206844
:1017300041F204098107C4F2020917D5410705D512
:10174000D9F8001041F4E061C9F80010010705D58F
:10175000D9F8001041F46051C9F80010D9F8001010
:10176000A26821F0F0011143C9F80010C00741D16F
:10177000D8F8000000F00700A8420CD9D8F8000003
:1017800020F007002843C8F80000D8F8000000F057
:101790000700A84237D12068410707D5D9F80010C3
:1017A000E26821F4E0611143C9F80010000708D590
:1017B000D9F80000216920F4605040EAC100C9F85E
:1017C0000000D9F8002002F00C00082841F20020A7
:1017D000C0F27A0050D144F2E263C2F38341C0F612
:1017E0000003595CD2033BD440F60010C0F23D0028
:1017F000484341E0606802280AD001282AD159F8FC
:10180000041C890308D4012001B0BDE8F08300BFA7
:1018100059F8041C8901F6D5D9F8001021F003010C
:101820000843C9F80000FFF7A5FE064641F28837D5
:10183000D9F80000616800F00C00B0EB810F97D080
:10184000FFF798FE801BB842F2D9032001B0BDE833
:10185000F08300BF59F8041C8907D4D5DCE700BF2A
:10186000D9F8002044F2DC63C2F34042C0F6000322
:101870009A5C4843B0FBF2F0D9F8001044F2C4621D
:10188000C1F30311C0F60002515C40F2140220FAC9
:1018900001F140F21000C2F200000068C2F2000242
:1018A0001160FFF78FFE002001B0BDE8F08300005B
:1018B00040F2140041F20401C2F20000C4F202013D
:1018C0000068096844F2D462C1F30221C0F6000244
:1018D000515CC8407047000040F2140041F204011E
:1018E000C2F20000C4F202010068096844F2D46246
:1018F000C1F3C221C0F60002515CC840704700002D
:101900002DE9F04182B0002868D00446007841F209
:101910000006C007C4F2020625D0706800F00C0073
:1019200004281BD0706800F00C00082802D17068F1
:10193000C00313D46068002800F06881B0F5A02FC0
:1019400000F07C81B0F5803F00F07C81306820F4AD
:1019500080303060306820F4802076E13068800389
:1019600001D56068D0B32078800718D5706810F072
:101970000C0F07D0706800F00C0008286ED170685A
:10198000C0036BD43068800702D52069012825D1B7
:101990003068616920F0F80040EAC10030602078CA
:1019A00000071FD42078400732D4E56995B17068EC
:1019B00000F00C00082840F08F80012D0ED07068D8
:1019C000216A00F480328A4208D1616A00F4701002
:1019D000884203D1002002B0BDE8F081012002B0AE
:1019E000BDE8F081A069002862D00020C4F2422046
:1019F0000121C0F88014FFF7BDFD0546706A80071D
:101A000000F18C80FFF7B6FD401B0228F6D92AE1D1
:101A1000F06910F0805808D1F06940F08050F06112
:101A2000F06900F080500090009847F20007C4F27F
:101A300000073868C00529D4386840F480703860E1
:101A4000FFF798FD054600BF3868C0051ED4FFF7B4
:101A500091FD401B6428F7D905E100BF20690028EB
:101A600040F20000C4F2422000F0828001210160B7
:101A7000FFF780FD054600BF306880073FF588AF5F
:101A8000FFF778FD401B0228F6D9ECE0E06800285B
:101A900000F08080052800F09780012800F09880F1
:101AA000306A20F001003062306A20F0040092E0D9
:101AB0000020C4F242200021C0F88014FFF75AFD34
:101AC000054600BF706A80077FF56CAFFFF752FDD7
:101AD000401B0228F6D9C6E00027C4F242270020A6
:101AE0003866FFF747FD022D05460BD130688001AF
:101AF00040F1BE80FFF73EFD401B02284FF003007F
:101B0000F4D968E7306880017FF564AFFFF732FDF4
:101B1000401B02284FF00300F4D95CE740F21400A8
:101B2000C2F20000006844F6D351C1F26201A0FB8A
:101B30000101480A019000BF00BF0198411E002822
:101B400001913FF42FAF00BF0198411E0028019181
:101B50003FF428AF00BF0198411E002801913FF4D7
:101B600021AF00BF0198411E00280191E4D119E77F
:101B700000210160FFF7FEFC054600BF30688007CA
:101B80007FF50DAFFFF7F6FC401B02284FF0030076
:101B9000F4D920E7306A20F001003062306A20F08A
:101BA00004003062FFF7E6FC054641F2883700BFCB
:101BB000306A800720D5FFF7DDFC401BB8424FF0AC
:101BC0000300F5D907E700BF306A40F00400306237
:101BD000306A40F001003062FFF7CCFC054641F26C
:101BE000883700BF306A800706D4FFF7C3FC401B6C
:101BF000B842F7D937E000BFB8F1000F7FF4D5AE97
:101C0000F06920F08050F061CFE600BF306820F42A
:101C100080303060306820F480203060FFF7AAFC0C
:101C2000054600BF306880037FF59DAEFFF7A2FC3C
:101C3000401B64284FF00300F4D9CCE6306840F430
:101C400080203060306840F480303060FFF792FCD4
:101C5000054600BF306880033FF585AEFFF78AFC7C
:101C6000401B6428F6D9032002B0BDE8F08100BF14
:101C7000206AB0F5803F05D17168A26821F4003177
:101C8000114371607168626A21F474111143084351
:101C9000706001203866FFF76DFC044630688001F3
:101CA0003FF598AEFFF766FC001B02284FF00300DB
:101CB000F4D990E6411E0020B0EB116F1CBF01204B
:101CC00070474EF21002CEF2000251604EF62351E0
:101CD000CEF20001F0230B70072190601160704775
:101CE000704700007047000010B590F83C20012AB2
:101CF0004FF0020233D080F83D200268D2F804E0B1
:101D0000D2F808C00C682EF07003234340F2FF7431
:101D1000C4F20004A24253600ADCB2F1804F13D037
:101D200040F20043C4F200039A420DD011E000BF1C
:101D300042F60043C4F201039A4205D040F6000384
:101D4000C4F200039A4204D149682CF0800319437D
:101D500091600121002280F83D1080F83C2010465F
:101D600010BD0000002804BF0120704710B50446D4
:101D700090F83D0028B9002084F83C00204600F08F
:101D80006FF8022084F83D00206840F2FF7302687B
:101D9000C4F2000342F6004C9842C4F2010C15DC78
:101DA000B0F1804F1AD040F20041C4F200018842E5
:101DB00014D0984218DCB0F1804F1DD040F20041A1
:101DC000C4F20001884217D01AE000BF604505D078
:101DD00040F60001C4F200018842EAD1A16822F075
:101DE00070020A439842E6DD604505D040F60001E6
:101DF000C4F20001884203D1216922F440720A43EF
:101E0000A36922F08001D4F804E0E2681943604538
:101E10000160C262C0F828E002D16169CCF83010DC
:101E2000012141610269D20703D0026922F0010257
:101E30000261002084F8461084F83E1084F83F10B8
:101E400084F8401084F8411084F8421084F843105C
:101E500084F8441084F8451084F83D1010BD00004B
:101E600080B582B0006840F60001C4F200018842EB
:101E70001CBF02B080BD41F21C00C4F20200016828
:101E8000002241F0040101600068002100F004001C
:101E9000019001981E20FFF7EFFB1E2002B0BDE865
:101EA0008040FFF7D5BB000090F83D1001291CBF12
:101EB00001207047022180F83D10006840F2FF7158
:101EC000C4F20001884209DCB0F1804F12D040F228
:101ED0000041C4F2000188420CD012E042F60041F9
:101EE000C4F20101884205D040F60001C4F20001AD
:101EF000884206D1816801F00701062904BF00204D
:101F00007047016841F00101016000207047000046
:101F100080B590F83C20012A4FF0020200F0C28008
:101F200080F83D20D0F800C04FF67772DCF808301A
:101F300023EA0202CCF808200B684F2B28DC1F2B69
:101F400044DD202B45D0302B43D0402B40F0AC80DB
:101F5000D1F804E0C968DCF82030DCF8202022F059
:101F60000102CCF82020DCF8182022F0F00242EA2E
:101F7000011123F00A0242EA0E02CCF81810CCF844
:101F80002020DCF8081041F0470121F0300180E00A
:101F90006F2B27DDB3F5005F48D0B3F5805F7AD0B3
:101FA000702B40F08180D1E901E3C968DCF808209A
:101FB00043EA0E0322F47F4243EA01211143CCF8A5
:101FC0000810DCF8081041F0770162E00BB1102B2B
:101FD0006AD1DCF8081021F07001194341F00701C3
:101FE00057E000BF502B35D0602B5DD1D1F804E015
:101FF000C968DCF82030DCF8202022F01002CCF890
:102000002020DCF8182022F4704242EA013123F04B
:10201000A00242EA0E12CCF81810CCF82020DCF80E
:10202000081041F0670121F0100132E0D1E901E32D
:10203000C968DCF8082043EA0E0322F47F4243EA31
:1020400001211143CCF80810DCF8081041F480415C
:102050001FE000BFD1F804E0C968DCF82030DCF8EC
:10206000202022F00102CCF82020DCF8182022F0F9
:10207000F00242EA011123F00A0242EA0E02CCF811
:102080001810CCF82020DCF8081041F0570121F09E
:102090002001CCF808100022012180F83D10002119
:1020A00080F83C10104680BD0122F5E77047000023
:1020B00070B504460068C5680669B10716D515F005
:1020C000020113D06FF002010161012121778069C3
:1020D000800703D02046FFF7E9FF05E0204600F027
:1020E0008FF8204600F08EF800202077700719D571
:1020F00015F0040016D020686FF004010161022180
:102100002177806910F4407F04D02046FFF7CEFF8E
:1021100006E000BF204600F073F8204600F072F899
:1021200000202077300717D515F0080014D020685C
:102130006FF00801016104212177C069800703D095
:102140002046FFF7B3FF05E0204600F059F820468F
:1021500000F058F800202077F00619D515F010008F
:1021600016D020686FF01001016108212177C06945
:1021700010F4407F04D02046FFF798FF06E000BF30
:10218000204600F03DF8204600F03CF80020207783
:10219000F00718BF15F0010002D1300609D412E093
:1021A00020686FF001010161204600F02DF8300633
:1021B00009D515F0800006D020686FF0800101611C
:1021C0002046FFF78DFD700609D515F0400006D0BA
:1021D00020686FF040010161204600F023F8B0064E
:1021E00058BF70BD15F0200008D021686FF02002A4
:1021F00020460A61BDE87040FFF774BD70BD000065
:1022000070470000704700000068B0F1804F18BFB1
:10221000704740F28C10C2F2000001680131016089
:1022200070470000704700007047000070470000D2
:10223000B0B582B0044600680168C368426901F025
:102240002F05202D03F0200506D12DB1204602B028
:10225000BDE8B04000F0D8BC5FEA017C1EBF02F0D0
:10226000010E03F4907212EB0E0253D1226B012A7D
:1022700005D111F0100218BF13F0100236D10A0672
:1022800022D513F080021FD094F8411021293FD1AC
:10229000A168B1F5805F03D12169002900F0708247
:1022A000216A4A1C226209784160E18C01390A04E2
:1022B000E1842DD1C16821F08001C160C16841F085
:1022C0004001C16002B0B0BD490621D513F0400104
:1022D0001ED0C16821F04001C1602021204684F851
:1022E000411002B0BDE8B04000F026BC00210191D1
:1022F000016801914168019101994069400613D438
:10230000A08DE18DE28D002A18BF884240F0BA818D
:1023100002B0B0BDCA0718BF13F4807240F0B68097
:102320004A0700F1B980BEE0E06B016849688AB2F3
:10233000002AEDD0A38D9A42EAD2E1858069202857
:1023400000F09C80206850E8030F216820F4807022
:1023500041E80302DAB1206850E8030F216820F455
:10236000807041E8030292B1206850E8030F2168B1
:1023700020F4807041E803024AB1206850E8030F5E
:10238000216820F4807041E80302002ADAD1206835
:1023900050E8050F216820F0010041E80502DAB19C
:1023A000206850E8050F216820F0010041E805028F
:1023B00092B1206850E8050F216820F0010041E843
:1023C00005024AB1206850E8050F216820F001009D
:1023D00041E80502002ADAD1206850E8050F21689B
:1023E00020F0400041E80502DAB1206850E8050F0E
:1023F000216820F0400041E8050292B1206850E8D1
:10240000050F216820F0400041E805024AB120682C
:1024100050E8050F216820F0400041E80502002A3D
:10242000DAD1202084F8420000202063206850E8A0
:10243000030F216820F0100041E80302DAB12068A0
:1024400050E8030F216820F0100041E8030292B128
:10245000206850E8030F216820F0100041E80302D3
:102460004AB1206850E8030F216820F0100041E8CD
:102470000302002ADAD1E06BFEF7D0FE022060638F
:10248000A08DE18D401A81B2204674E1626C42F069
:10249000010262644A0706D5BEF1000F03D0626CE8
:1024A00042F0020262648A0706D5BEF1000F03D033
:1024B000626C42F004026264BCF1000F09D545EA87
:1024C0000E02B2FA82F2520903D1626C42F00802A3
:1024D0006264626C002A3FF41BAF11F0200118BF48
:1024E000002D03D0204600F08FFB20684069616C0E
:1024F00000F0400001F00801401800F0B58000BF76
:10250000206850E8030F216820F4907041E803022E
:10251000BAB3206850E8030F216820F4907041E8B6
:10252000030272B3206850E8030F216820F4907012
:1025300041E803022AB3206850E8030F216820F421
:10254000907041E80302002ADAD11AE0206850E8CE
:10255000050F216820F0010041E80502DAB120688A
:1025600050E8050F216820F0010041E8050292B112
:10257000206850E8050F216820F0010041E80502BD
:102580004AB1206850E8050F216820F0010041E8B9
:102590000502002ADAD1206B012824D1206850E8F6
:1025A000030F216820F0100041E80302DAB120682F
:1025B00050E8030F216820F0100041E8030292B1B7
:1025C000206850E8030F216820F0100041E8030262
:1025D0004AB1206850E8030F216820F0100041E85C
:1025E0000302002ADAD1202084F842000020206370
:1025F0002068406940063FD5206850E8050F2168F3
:1026000020F0400041E80502DAB1206850E8050FEB
:10261000216820F0400041E8050292B1206850E8AE
:10262000050F216820F0400041E805024AB120680A
:1026300050E8050F216820F0400041E80502002A1B
:10264000DAD1E06BC0B142F6FD31C0F60001416362
:10265000FEF708FE00283FF45BAEE06B416B02B072
:10266000BDE8B040084700BF2046FFF7DFFD00206F
:10267000606402B0B0BD00BF204602B0BDE8B0400B
:10268000FFF7D4BD401A216851E8031F226821F4E6
:10269000907142E80313DBB1216851E8031F2268FF
:1026A00021F4907142E8031393B1216851E8031FAC
:1026B000226821F4907142E803134BB1216851E87C
:1026C000031F226821F4907142E80313002BDAD132
:1026D000216851E8051F226821F0010142E8051335
:1026E000DBB1216851E8051F226821F0010142E8B1
:1026F000051393B1216851E8051F226821F00101FB
:1027000042E805134BB1216851E8051F226821F00A
:10271000010142E80513002BDAD1202184F8421090
:1027200000212163216851E8031F226821F0100174
:1027300042E80313DBB1216851E8031F226821F04E
:10274000100142E8031393B1216851E8031F226886
:1027500021F0100142E803134BB1216851E8031F37
:10276000226821F0100142E80313002BDAD1022283
:1027700081B22046626302B0BDE8B040FFF754BDAD
:10278000216A31F8022B6FF35F22426021628CE5EF
:10279000002804BF0120704710B5044690F841009E
:1027A00028B9002084F84000204600F063F8242077
:1027B00084F841002068D4E90212C36823F400536E
:1027C000C360036923F440531A430261D4E904232C
:1027D0001143C268194341F20C639A431143C1602B
:1027E0004169A26921F44071114343F60002C4F229
:1027F00001029042416103D0FFF75AF802E000BFA6
:10280000FFF76AF86268192148439100B0FBF1F0C4
:1028100048F21F51C5F2EB11A0FB01235A094FF6F4
:102820009C73C0F6FF7302FB0300322303EB00101E
:10283000A0FB0101F02303EA5113206803EB02120D
:10284000C1F3431111448160016921F49041016198
:10285000416921F02A014161C16841F40051C16020
:1028600000202021606484F8411084F842106063E5
:1028700010BD000070B586B040F60004C4F201043B
:10288000006804F5405100268842049602D006B044
:1028900070BD00BF41F21800C4F20200016802AD31
:1028A00041F480410160016801F480410191019986
:1028B000016841F0040101600068294600F004004D
:1028C000019001984FF400700290022003900320C1
:1028D00005902046FEF734FD4FF48060CDE90206F6
:1028E000204629460496FEF72BFD252000210022D4
:1028F000FEF7C2FE2520FEF7ABFE06B070BD00005D
:1029000090F84230202B1CBF0220704700294FF066
:10291000010318BF002A01D1184670470023036342
:10292000816222218285C285436480F84210016958
:10293000006819B1C16841F48071C1604169002328
:1029400041F001014161C16841F02001C1601846B8
:1029500070470000B0B5006843F60001C4F2010101
:10296000884218BFB0BD40F27804C2F20004E0789B
:102970000D2801D00A280BD1217840F22810C2F28C
:1029800000000025455400F003FE25700EE000BF56
:102990002178622908D84A1C227040F22812C2F21B
:1029A0000002505402E000BF0020207040F2E0001E
:1029B000E11CC2F200000122BDE8B040FFF7A0BF59
:1029C0002DE9F041044690F8410020281CBF022068
:1029D000BDE8F0810D4600294FF0010000F0AA800B
:1029E0001646002A08BFBDE8F0810020606421205F
:1029F000984684F84100FEF7BDFDA684E684A168F0
:102A00000646B1F5805F02D12069002862D02F46CA
:102A10000025E08C002861D018F1010018D0B8F131
:102A2000000F37D1216808E017F8010B4860E08CEF
:102A30000138E084E08C002851D00868000673D586
:102A4000002FF1D135F8020B00276FF35F20EDE77F
:102A5000216802E00868000609D40868000606D468
:102A6000086800065CBF08685FEA0060F2D51FB125
:102A700017F8010B05E000BF35F8020B00276FF3D4
:102A80005F204860E08C0138E084E08C0028E4D1CD
:102A900025E000BF216800BF0868000608D4FEF7E3
:102AA00069FD801B404541D82168C868F4E700BF34
:102AB00017B117F8010B04E035F8020B00276FF38C
:102AC0005F204860E08C0138E084E08C0028E3D18E
:102AD00005E000BF0027E08C00289DD12168086830
:102AE00040061FD4B8F1000F1ED018F101000FD11D
:102AF0000868400616D40868400613D408684006E3
:102B000010D4086840064FF00000F1D50FE000BF78
:102B1000FEF730FD801B404508D82068C16800687A
:102B20004006F5D5002002E0FEF724FD0320202119
:102B300084F84110BDE8F08170470000FEE7000016
:102B4000B0B50446DDE90650DDE904CEA075A582E6
:102B5000C4F810E0A4F80CC0C4E90012A36008B1E6
:102B6000382108E02046332100F0D6F820463221F3
:102B700000F0D2F82821204600F0CEF820460121AE
:102B800000F0CAF820460C2100F0C6F820460621C5
:102B900000F0C2F8B0BD000044F2DE63C0F60003EE
:102BA000595C11448039C9B200F0B6B8F0B581B0B3
:102BB0000C46097869B1054600270026E15D2846E4
:102BC00000F05CF901362046F7B2FDF751FCB8423F
:102BD000F4D801B0F0BD0000FEE70000FEE7000001
:102BE0007047000070470000FEF7CABC7047000045
:102BF00040F29800C2F20000FFF75ABA406A002182
:102C0000C185C184FFF712BB81B090F84210222920
:102C100021D183680246B3F5805F09D152F8281F9D
:102C200052F8183C002B63D003685B680AE000BFD1
:102C300052F8281F13B90369002BF5D003685B68AD
:102C400003F07F030B70116801311160C18D0139F0
:102C50000A04C18502D001B0704700BF0168CA688C
:102C600022F02002CA60CA6822F48072CA604A69EF
:102C700022F001024A61202180F8421000214163C4
:102C8000026B012A3CD10163016851E8031F02680D
:102C900021F0100142E80313DBB1016851E8031F82
:102CA000026821F0100142E8031393B1016851E872
:102CB000031F026821F0100142E803134BB10168C1
:102CC00051E8031F026821F0100142E80313002BB2
:102CD000DAD101680A68D20606D5002200920A6895
:102CE0000092496800910099818D01B0FFF79CBA6C
:102CF000026852686FF35F2221F8022B8162A5E718
:102D000001B0FFF727BE000040F2E000C2F2000071
:102D1000FFF78EBAFEE70000F0B581B00446A28945
:102D200080680D4611460022FEF71EFCA07D00289B
:102D300044D0D4E9000105F0010200680988FEF7DB
:102D400013FCD4E90001C5F3400240684988FEF74E
:102D50000BFCD4E90001C5F3800280688988FEF786
:102D600003FCD4E90001C5F3C002C068C988FEF7BE
:102D7000FBFBD4E90001C5F3001200690989FEF7E5
:102D8000F3FBD4E90001C5F3401240694989FEF71D
:102D9000EBFBD4E90001C5F3801280698989FEF755
:102DA000E3FBD4E90001EA09C069C989FEF7DCFB4D
:102DB00004F1100604F1140750E000BFD4E900014B
:102DC000C5F3001200680988FEF7CEFBD4E90001C4
:102DD000C5F3401240684988FEF7C6FBD4E90001FC
:102DE000C5F3801280688988FEF7BEFBD4E9000134
:102DF000EA09C068C988FEF7B7FB2646274656F899
:102E0000100F37F8141F0122FEF7AEFB0120FEF76A
:102E100083FA306839880022FEF7A6FBD4E9000166
:102E200005F0010200680988FEF79EFBD4E9000165
:102E3000C5F3400240684988FEF796FBD4E90001DB
:102E4000C5F3800280688988FEF78EFBD4E9000113
:102E5000C5F3C002C068C988FEF786FB30683988B0
:102E60000122FEF781FB0120FEF756FA306839880F
:102E7000002201B0BDE8F040FEF776BBF0B581B0AE
:102E80000446A28980680D4611460122FEF76CFBBC
:102E9000A07D002844D0D4E9000105F001020068BB
:102EA0000988FEF761FBD4E90001C5F340024068E0
:102EB0004988FEF759FBD4E90001C5F38002806818
:102EC0008988FEF751FBD4E90001C5F3C002C06850
:102ED000C988FEF749FBD4E90001C5F30012006977
:102EE0000989FEF741FBD4E90001C5F340124069AE
:102EF0004989FEF739FBD4E90001C5F380128069E6
:102F00008989FEF731FBD4E90001EA09C069C98962
:102F1000FEF72AFB04F1100604F1140750E000BF8D
:102F2000D4E90001C5F3001200680988FEF71CFB14
:102F3000D4E90001C5F3401240684988FEF714FB4C
:102F4000D4E90001C5F3801280688988FEF70CFB84
:102F5000D4E90001EA09C068C988FEF705FB2646E6
:102F6000274656F8100F37F8141F0122FEF7FCFA17
:102F70000120FEF7D1F9306839880022FEF7F4FA13
:102F8000D4E9000105F0010200680988FEF7ECFAB7
:102F9000D4E90001C5F3400240684988FEF7E4FA2D
:102FA000D4E90001C5F3800280688988FEF7DCFA65
:102FB000D4E90001C5F3C002C068C988FEF7D4FA9D
:102FC000306839880122FEF7CFFA0120FEF7A4F914
:102FD00030683988002201B0BDE8F040FEF7C4BA7D
:102FE000A2B0FEF7DBFA00240120CDE91544CDE9BB
:102FF0001344109014904FF4E0104FF480310225E8
:10300000199010A8CDE91114CDE91751FEF778FCFD
:1030100020B1EFF3108072B6FEE700BF0F20CDE9BC
:1030200004054FF48060CDE9070404A8022106944A
:10303000FEF75EFB20B1EFF3108072B6FEE700BF33
:1030400041F21800C4F20200016840F6000841F0A5
:10305000200101600168C4F2010801F02001109113
:103060001099016840F6004941F0040101600168CF
:10307000002201F00401109110990168C4F20109C5
:1030800041F008010160006841F6FF0100F008000E
:1030900010901098404641F6FF060025FEF764FAAE
:1030A00048464FF678010022FEF75EFA109610AE01
:1030B0000127022440463146CDE911751394FEF7ED
:1030C0003FF94FF4006010901120CDE911074846F8
:1030D00031461394FEF734F94FF27800CDE910072A
:1030E00048463146CDE91254FEF72AF940F2780BF2
:1030F000C2F2000BA8F58031584640F8201F472146
:103100004FF6FE721395CDE91155CDE90455C0E98E
:103110000115C0E903258561FEF724FE20B1EFF318
:10312000108072B6FEE700BF4FF480500BF120070D
:10313000109010A93846FEF7EBFE28B1EFF310808F
:1031400072B600BFFEE700BF04A93846FEF7CCFD0B
:1031500020B1EFF3108072B6FEE700BF40F2E0004E
:1031600043F60001C2F20000C4F2010100250C2365
:103170004FF4165280E82600C0E90355C0E9053532
:10318000C561FFF705FB28B1EFF3108072B600BFF1
:10319000FEE700BF40F2E0000BF10301C2F20000C5
:1031A0000122FFF7ADFB3846FEF77EFE44F2000039
:1031B000C8F200000B9041F20000C2F200000A9039
:1031C0004FF400604FF48051CDE9020504AD009149
:1031D0000CA90AAA28464346CDE90E99CDE90C99D7
:1031E000CDF80480FFF7ACFC284600210022FFF751
:1031F000D3FCE2A12846FFF7D9FCC820FEF78CF8E3
:10320000284601210022FFF7C7FCDFA12846FFF76F
:10321000CDFCC820FEF780F840F6004702250DF1EE
:10322000400AC4F201079BF8010001380328FAD8CC
:10323000DFE800F0161A02500120ABF80A0040F255
:10324000E00044F22771C2F20000C0F60001122231
:103250004FF0FF338BF80150FFF7B2FBE3E700BFFD
:103260008BF80150DFE700BFFDF746FF002867D06D
:10327000FDF7E6FE8BF80400FDF7E2FE8BF8050093
:10328000FDF7DEFE8BF80600FDF7DAFE8BF807008F
:10329000FDF7D6FE9BF804509BF805609BF90620CD
:1032A00001468BF808009BF8070073191344034488
:1032B000DCB28C428BF8093042D1B2F1FF3F1BDD0A
:1032C000D1B240EA012001F025F80021C4F2C83152
:1032D00017E000BF40F2E00044F21671C2F20000B5
:1032E000C0F6000110224FF0FF33FFF769FB9BF897
:1032F0000100042897D12BE101F024F80021CCF241
:10330000201100F029FF0021C4F21011CBF80C00AD
:1033100001F02CF80021C4F2A00100F01DFF4FF0D5
:10332000844100F0B7FECBF8100046EA052000F01B
:10333000F1FF0021C4F2483100F00EFFCBF8140079
:10334000D94659F80C6F44F2497139F8022CD9F872
:103350000880501C29F8020C5046C0F60001FCF70A
:103360004BFF5046FDF784F840F2E004C2F200043F
:1033700082B2204651464FF47A73FFF721FB304664
:1033800000F05CFE0B4644F2037102465046C0F664
:103390000001FCF731FF5046FDF76AF882B2204683
:1033A00051464FF47A73FFF70BFB404600F046FEA0
:1033B0000B4644F2F26102465046C0F60001FCF7AB
:1033C0001BFF5046FDF754F882B2204651464FF499
:1033D0007A73FFF7F5FA19F80A0CD9F80860002893
:1033E000484618BF0430006844F2BA75C0F60005BC
:1033F00044F2B371C0F6000108BF0D4600F01EFE96
:1034000002460B4650462946FCF7F6FE304600F0D1
:1034100015FE0B461DAE44F2AC7102463046C0F6B6
:103420000001FCF7E9FE04AD284600210922FFF760
:10343000B3FB28465146FFF7B9FB28460121092274
:10344000FFF7AAFB28463146FFF7B0FB40F6000025
:10345000C4F2010080210022FEF786F8D9F800505E
:10346000284600F03BFF064600F054FF0146284680
:1034700001F048F80021C4F2C82100F077FF00F005
:103480002DFF40F20004C2F2000421784A1E032AF4
:1034900051D8DFE802F0030F1F2B00BF46F2676030
:1034A000C6F2666086FB0001881000EBD175082625
:1034B0002AE000BF46F26760C6F2666086FB000144
:1034C000881000EBD17000EB8000A6EB40051026C1
:1034D0001AE000BF46F26761C6F2666180FB010137
:1034E000881000EBD17520260EE000BF46F2676120
:1034F000C6F2666180FB0112911001EBD27101EB03
:103500008101A0EB41054026384678210122FEF7D3
:103510002BF84FF60C42CFF6FF72E9B2B8582144AF
:10352000497800F47F400844B850384631460022BC
:10353000FEF71AF82178481CC1B2042988BF01207F
:1035400020704FF47A700225FDF7E6FE6BE600BFAF
:10355000DBF82000002100BF4162426A312AFBD81B
:10356000426A312AF8D8426A312AF5D8426A322AA8
:1035700028BF4162426A312AF2D9EDE74E68696597
:103580007420646F3A000000446F20616D3A0000BF
:1035900010B57EA10C220446FCF789FF60B37FA121
:1035A0002046FCF7CFFF002842D07DA12046FCF743
:1035B000C9FF002852D07BA12046FCF7C3FF00289A
:1035C00076D07AA12046FCF7BDFF002800F0968057
:1035D00078A12046FCF7B6FF002800F0A58040F255
:1035E000E000C2F2000075A111224FF0FF33BDE8E8
:1035F0001040FFF7E5B900BF0C348EA12046FCF760
:10360000A1FF00283ED08CA12046FCF79BFF00289C
:103610005ED040F2E00044F25671C2F20000C0F603
:10362000000116224FF0FF33BDE81040FFF7C8B984
:1036300040F2780C40F2E00044F23A71C2F2000C21
:103640000124C2F20000C0F600010E224FF0FF3349
:103650008CF80140BDE81040FFF7B2B940F2780C99
:1036600040F2E000C2F2000C0024C2F200006DA1A2
:103670000F224FF0FF338CF80140BDE81040FFF7F8
:103680009FB900BF40F2780C40F2E00044F26D7147
:10369000C2F2000C0024C2F20000C0F600011D229C
:1036A0004FF0FF338CF80240BDE81040FFF788B9B7
:1036B00040F27804C2F20004607800284ED040F254
:1036C000E0004FF0020CC2F2000049A13CE000BF54
:1036D00040F2780C40F2E00044F28B71C2F2000C30
:1036E0000124C2F20000C0F6000120224FF0FF3397
:1036F0008CF80240BDE81040FFF762B940F2780C48
:1037000040F2E00044F22771C2F2000C0324C2F23E
:103710000000C0F6000112224FF0FF338CF8014088
:10372000BDE81040FFF74CB940F27804C2F2000443
:103730006078F8B140F2E00044F216714FF0040CEA
:10374000C2F20000C0F6000110224FF0FF3384F8EF
:1037500001C0BDE81040FFF733B900BF40F2E00000
:10376000C2F2000027A11D224FF0FF33BDE8104038
:10377000FFF726B940F2E000C2F2000014A11C22BB
:103780004FF0FF33BDE81040FFF71AB95345545FBF
:10379000444953504C415920000000004F4E000056
:1037A0004F46460053544152540000005245535472
:1037B0004152540053544F5000000000496E76614E
:1037C0006C696420636F6D6D616E640D0A000000AA
:1037D00043616E6E6F742053544F502C2073797375
:1037E00074656D206973204F46460D0A0000000085
:1037F00053797374656D20535441525445440D0AF6
:103800000000000043616E6E6F74205354415254A7
:103810002C2073797374656D206973204F46460DB3
:103820000A00000053797374656D206973204F4658
:10383000460D0A0043000000460000005FEA400C0D
:1038400008BF91F0000F4FEA8C234FEAC12243EAF0
:1038500051514FEA1C5018BF00F5F0404FEA3000BC
:1038600018BF41F000415FEA6C5C00F02980BCF1B8
:10387000FF3F08BF40F080407047130C06BF1204A2
:103880004FF0100C4FF0000C130E04BF12020CF19D
:10389000080C130F04BF12010CF1040C930F04BFAA
:1038A00092000CF1020CD30F04BF52000CF1010C7A
:1038B00011464FF00002A0F11F00A0EB0C00704772
:1038C00011F0004F08BF704731F000413FF4D5AF11
:1038D0000B0C06BF09044FF0100C4FF0000C0B0E40
:1038E00004BF09020CF1080C0B0F04BF09010CF115
:1038F000040C8B0F04BF89000CF1020CCB0F04BF2A
:1039000049000CF1010CCCF1200322FA03F341EA47
:10391000030102FA0CF2A0EB0C0000F10100704769
:1039200023F07F4720F07F4C80EA030000F0004046
:10393000ACEB070303F57C5303F1FF032DE980494A
:1039400009B44FEA144324EA03484FEA154B25EA29
:103950000B4E0FF2042606EB13273E7803FB066797
:10396000C7F5000707FB06F64FEAD64606F1020642
:103970004FEA543707FB066CCCF1005C4FEA1C475A
:103980002CEA074C0CFB06F507FB06F404EB154686
:103990004FEA961649085FEA320234BF00204FF022
:1039A00000404FEAD13706FB07FC4FEA1C4C0CFBEA
:1039B0000BF7D21B03FB0CF761EB07010CFB0EF7B7
:1039C000B0EB074072EB17420CFB08F734BFA2EBD9
:1039D0000742B2EB074261EB17414FEA0C444FEA52
:1039E000910706FB07FC4FEA1C4C0CFB0BF7B0EBF6
:1039F000C74072EB573203FB0CF734BFA2EBC74250
:103A0000B2EBC74261EB57310CFB0EF7B0EBC700CE
:103A100072EB57720CFB08F734BFA2EBC702B2EB94
:103A2000C70261EB57714FEA816141EA92114FEA97
:103A3000826242EA90124FEA806004EBCC04039F5A
:103A40004FEAD13706FB07FC4FEA1C4C0CFB0BF787
:103A5000D21B03FB0CF761EB07010CFB0EF7B0EB7D
:103A6000074072EB17420CFB08F734BFA2EB07428A
:103A7000B2EB074261EB17414FEA8C5504EB9C24F3
:103A80004FEA910706FB07FC4FEA1C4C0CFB0BF7B7
:103A9000B0EBC74072EB573203FB0CF734BFA2EB1D
:103AA000C742B2EBC74261EB57310CFB0EF7B0EBEC
:103AB000C70072EB57720CFB08F734BFA2EBC702CA
:103AC000B2EBC70261EB57714FEA816141EA921193
:103AD0004FEA826242EA90124FEA806015EB4C2571
:103AE00044F100044FEAD13706FB07FC4FEA1C4CB7
:103AF0000CFB0BF7D21B03FB0CF761EB07010CFB74
:103B00000EF7B0EB074072EB17420CFB08F734BF1F
:103B1000A2EB0742B2EB074261EB17414FEA81315A
:103B200041EA92414FEA823242EA90424FEA8030C3
:103B30004FEA0C7615EB1C1544F1000448EA0343E8
:103B40004EEA0B484FF0000EB2EB080C71EB030786
:103B500024BF624639464EEB0E0E4FF0000B0018A4
:103B6000524149414BEB0B0BB2EB080C71EB0307D5
:103B70007BF1000B24BF624639464EEB0E0E4FF030
:103B8000000B0018524149414BEB0B0BB2EB080CF8
:103B900071EB03077BF1000B24BF624639464EEB05
:103BA0000E0E51EA020718BF46F0010616EB0E761C
:103BB00055F1000254F1000103D5BDE88901BDE8CB
:103BC0000088BDE88901BDE80048B619524141EBC3
:103BD0000101A3F10103704780807F7E7D7C7B7AA9
:103BE0007978777676757473727171706F6E6E6DA9
:103BF0006C6C6B6A6A69686867666665646463634F
:103C000062616160605F5F5E5E5D5D5C5C5B5B5AD4
:103C10005A59595858575756565555555454535341
:103C200052525251515050504F4F4F4E4E4D4D4D9C
:103C30004C4C4C4B4B4B4A4A4A49494948484847E7
:103C40004747474646464545454444444443434325
:103C500043424242424141419C46002B30D47700CE
:103C60002BD04FEA37071CB503B44FF010004FF0CC
:103C70001001BAF1000F06D0BCF1000FDCBF40F01C
:103C8000080040F008014FF000000FBCBDE81040F4
:103C90000BF1010BBBF1010F08BF5FEA170722BF51
:103CA00012F1010211F101014FF0004143F1000353
:103CB00000F0004043EA00007047F9D35708D0E70E
:103CC00046EA06464FEA164613F1400F1FDD13F190
:103CD000200FDFBF16430A46002120335B42BED0CF
:103CE000C3F1200746EA06464FEA164602FA07F7EE
:103CF00046EA070622FA03F2C3F1200701FA07F7A2
:103D000042EA070221FA03F14FF00003A7E746EA6F
:103D1000020646EA06464FEA164646EA0106BCBFD8
:103D200046EA0646360C4FF000034FF000024FF013
:103D3000000194E72DE9804C70B49A46934691E8CF
:103D4000380007C831EA400C48BF34EA430C03D5B9
:103D5000FFF7E6FDFFF780FFF0BCBDE8008C2DE922
:103D6000804C70B49A46934691E8380007C810F02A
:103D7000804F08BF13F0804F03D100F005F8FFF724
:103D80006BFFF0BCBDE8008C20F07F4723F07F4C38
:103D900080EA030000F0004007EB0C03A3F57C531E
:103DA000A3F1FE0392F0000F00F0B38095F0000F36
:103DB00000F077802DE901494FEA114021EA0048DF
:103DC0004FEA144624EA064700FB06FC08FB06F609
:103DD00007FB08F818EB06484CEB164C00FB07F7FE
:103DE00018EB07484CEB17404FEA124B22EA0B4EF8
:103DF0004FEA154625EA06470BFB06FC0EFB06F6C6
:103E000007FB0EFE1EEB064E4CEB164C0BFB07F7AA
:103E10001EEB074E4CEB174B18EB0B0840F1000064
:103E200018EB0E0B58EB000840F100008F1A4FF012
:103E300000014FF000063CBFC943661B14BFB5EB41
:103E4000040C00213CBFC943F61B4FEA174427EA84
:103E500004454FEA1C472CEA074C04FB076205FBAC
:103E600007F70CFB05F616EB074642EB174204FB7F
:103E70000CFC16EB0C4642EB1C421BEB060658EB07
:103E8000020241414EEA8E0E46EA9E0601D5BDE889
:103E90000189B619524141EB0101A3F10103BDE8CB
:103EA00001894FEA144524EA05464FEA114721EA01
:103EB000074C05FB07F406FB07F70CFB06F111EBBB
:103EC000074144EB174405FB0CFC11EB0C4144EBA0
:103ED0001C444FEA124722EA074C05FB07F206FB97
:103EE00007F70CFB06F616EB074642EB174205FBFD
:103EF0000CFC16EB0C4642EB1C456A1854F1000111
:103F000048BF7047B619524141EB0101A3F10103CB
:103F1000704795F0000F37D04FEA114221EA024670
:103F20004FEA144724EA074C02FB07F106FB07F7A8
:103F30000CFB06F414EB074441EB174102FB0CFCAD
:103F400014EB0C4441EB1C414FEA154725EA074CA2
:103F500002FB07F506FB07F70CFB06F616EB074618
:103F600045EB174502FB0CFC16EB0C4645EB1C42DF
:103F7000121951F1000148BF7047B619524141EB87
:103F80000101A3F1010370474FEA144524EA0546F5
:103F90004FEA114721EA074C05FB07F106FB07F73B
:103FA0000CFB06F212EB074241EB174105FB0CFC40
:103FB00012EB0C4251EB1C414FF0000648BF70471A
:103FC000921841EB0101A3F101037047490050EA47
:103FD000C12018BF04204A0D18BF40F0010040F274
:103FE000FF72B2EB515F08BF40F00200012808BF2A
:103FF0000520704730380A2801D201207047002080
:104000007047000010B500290AD00878002807D0B2
:1040100005487844FCF796FA002801D0002010BD2E
:104020000248784410BD0000D2070000CA07000013
:104030000808A0F500114FEA3101704743004FEA2C
:10404000D30C4FEA3C0C43401FBF40070CF16051BA
:1040500013F0FE4F70471CF0006F03D10CF00041CD
:10406000002070470CF0004343EA507040EACC0057
:1040700010B500F0FCF900BF000000924FEA00010B
:10408000FFF7D6BF4FF00041A1F500214FF000002F
:104090007047000090EA010F48BF81F0004100F135
:1040A0003882421A3CBF801A89184FEAD052A2EBDC
:1040B000D1534FF07F4C1CEA410F18BF9CEA026FAE
:1040C00000F03B804FF0004C4CEA00204CEA01210C
:1040D00021FA03FC10EB0C0C1ED202F1FF325FEA56
:1040E0001C2040EBC25038BF70471CF07F0F4FEAD6
:1040F000400C18BFBCF17F4F38BF7047C3F120039D
:10410000994008BF20F00100BCF17F4F38BF7047D5
:10411000A0F1C04000F0F1B94FEA3C00000A40EBCA
:10412000C25028BF1CF0FF0F4FEA400CE6D018BF6A
:10413000BCF17F4F38BF7047EAE79CEA026F05D0B9
:1041400010EA5C0F08BF00F00040704710B500F0A7
:104150008EF900BF64FBBE3E4FF47F0C1CEAD01208
:104160001EBF1CEAD11392EA0C0F93EA0C0F00F069
:10417000858090EA010F48BF42F4807240F4000C41
:1041800041F400002CF07F4120F07F4000B5A2EB0D
:10419000030281420FF2081CACEB504E9EF800E087
:1041A000C0F100004FEA4E0E00FB0EFC38BF490084
:1041B0004FEA2C1C0CFB0EF34FEACE1E0EEB635E97
:1041C0004FEA112C0EFB0CFC4FEAC1214FEA1C53A5
:1041D00000FB031102F5FA024FEA112C0EFB0CFC56
:1041E0004FEA01314FEADC4C00FB0C1142EB22425A
:1041F000C14228BF09184CEB03335DF804EB10EB08
:10420000410143EBC250B2F57C0F38BF704729D54E
:1042100012F0F00F1CBF00F1C04000F000407047EA
:10422000008182838485868788898B8C8D8E8F918F
:104230009293959697999A9C9D9FA0A2A3A5A7A8B3
:10424000AAACAEB0B2B3B5B7B9BCBEC0C2C5C7C9DF
:10425000CCCED1D4D7D9DCDFE2E6E9ECF0F3F7FA43
:10426000FE0000004FEA400C0CF1807CBCF17E4F58
:1042700028BF7047B0F1C04000F03FB90CEAD1133D
:1042800090EA010F48BF42F48072624538BF63452F
:1042900007D213F47F0F16D080EA010000F000402F
:1042A000704710B500F0E3F8097EFC3E00F005B859
:1042B00080EA010000F00040704780EA010000F051
:1042C000004000F01AB912F47F0F04BF0248704793
:1042D00080EA010000F011B90000C07F41000B0E20
:1042E000D3F19E0208D950F400034FEA032323FAC6
:1042F00002F048BF4042704710B500F0B8F800BF68
:1043000049922480002070476FF0004282EA20002A
:104310007047000010F0004148BF4042B0FA80F3FF
:1043200010FA03F2C3F19D030BD051EAC35101EB24
:104330001220530638BF704700F1010008BF20F07B
:1043400001007047B0FA80F310FA03F2C3F19D0345
:104350000AD0D90501EB1220530638BF704700F18F
:10436000010008BF20F00100704700004FF47F0CEF
:104370001CEAD0121EBF1CEAD11392EA0C0F93EA7A
:104380000C0F00F0478090EA010F48BF42F48072A2
:104390004FF0004C4CEA00204CEA012102EB0302F2
:1043A000A0FB0113A2F50002002918BF43F001038E
:1043B0005B0028BF4FEA330342EB22425FEA132C33
:1043C0004CEBC2502EBFBCEB436FB2F57C0F704775
:1043D0004FEA036CBCF1004F08BF20F00100B2F5BA
:1043E0007C0F38BF70470BD582F0FF0212F5803F7B
:1043F000C8BF704700F1C040D8BF00F00040704710
:1044000000F5000C5FEA4C0C48BF7047B0F1C040AB
:1044100000F073B80CEAD11390EA010F48BF42F4E0
:104420008072624538BF634504D280EA010000F023
:104430000040704710B500F01AF800BF8900013E37
:1044400000F007B800F009B85FEA410C5FEA1C6CA5
:1044500008D080EA010000F050B85FEA400C5FEA43
:104460001C6CF6D14FF00040A0F5800070470EF1B3
:10447000020E2EF0030E5EF8044B244204D44FEAE1
:104480004102B2F17F4F11D84FEA4003B3F17F4FA1
:104490000CD80ED14FEAD07C0CEB4C0C0CF1020C7A
:1044A000B2F17F4F08BF4CEBD17C04E04FF0080C19
:1044B00001E04FEAD17C0CEB4C0324FA03F404F046
:1044C0000704B4F1040C06D20EEB840CBDE81040D6
:1044D0004CF0010C6047DFE80CF0070802024FF0D7
:1044E0000040A0F5800010BD0846420018BFD2F180
:1044F000807288BF00F0004010BDFF2141EAD0501B
:10450000C005704790EA010F48BF81F000413FF5B8
:10451000C8AD421A04D882F00042A0EB0200114458
:104520004FEAD052A2EBD1534FF07F4C1CEA410F1F
:1045300018BF9CEA026F4AD04FF0004C4CEA0020B2
:104540004CEA012121FA03FCB0EB0C0C0FD412F061
:10455000FE0F36D05FEA4C001DD5001240EBC25072
:1045600038BF70471CF03F0F18BF70470BE05FEA81
:104570001C20A2F1010240EBC25038BF70471CF072
:104580007F0F18BF7047C3F12003994014BF401E2E
:1045900020F0010070474FEA1223800808BF7047DF
:1045A000B0FA80FCA2EB0C02CCF1280C60FA0CF003
:1045B00093EA122F04BF00EBC25070474FEAC3705A
:1045C0007047130A5FEADC1008BF7047F6E79CEA01
:1045D000026F04D010EA5C0F08BF0020704710B5CE
:1045E000FFF745FF40DFF63E81F000407047FCF7E3
:1045F0001DB9FCF751BA04000008000000000000DB
:1046000000020001000010303132333435363738C3
:1046100039616263646566787000303132333435F5
:10462000363738394142434445465850000000006F
:1046300002400000000000A0000000000540000053
:10464000000000C8000000000C4000000000409C7A
:1046500000000000194000000020BCBE0000000067
:1046600034400000BFC91B8E00000004B5400000AC
:10467000504BCFD06607E2CF010000006C41000034
:104680003E8251AADFEEA73401000000D9420000AB
:10469000DCB5A0E23A301F97FFFFFFFFB4450000F2
:1046A000FD25A0C8E9A3C14FFFFFFFFFFF3F0000AA
:1046B0000000008000000000FF3F000000000080BC
:1046C00000000000000000000000000001020304E0
:1046D000060708090000000001020304010200406F
:1046E000105002030405060708090A0B0C0D0E0FF3
:1046F0001010446F20616D3A20252E32662025254A
:104700000D0A004E6869657420646F3A20252E32C8
:104710006620430D0A0053797374656D2053544F1E
:10472000505045440D0A0053797374656D2052450D
:10473000535441525445440D0A0053797374656DC6
:10474000206973204F4E0D0A004C616E20646F3A51
:104750002025640D0A00496E76616C6964206469E5
:1047600073706C6179206D6F64650D0A0044697324
:10477000706C6179206D6F64652073657420746F4F
:104780002043656C736975730D0A00446973706C1E
:104790006179206D6F64652073657420746F2046A5
:1047A000616872656E686569740D0A00252E32664F
:1047B000252500252E3266DF4300252E3266DF4692
:1047C0000000000000480008000000201800000061
:1047D0002801000818480008180000208007000081
:1047E000440100081C00000043000000F8FFFFFF28
:1047F0000C0000000E0000000F0000002E00000062
:1048000001C0F9A4B0999282F880900001000000E4
:084810001000000000127A0004
:04000005080000ED02
:00000001FF
